{
  "_format": "hh-sol-artifact-1",
  "contractName": "Chain4Good",
  "sourceName": "contracts/Chain4Good.sol",
  "abi": [
    {
      "inputs": [
        {
          "internalType": "address",
          "name": "_veraTokenAddress",
          "type": "address"
        },
        {
          "internalType": "address payable",
          "name": "_couponNFT",
          "type": "address"
        },
        {
          "internalType": "uint48",
          "name": "_votingDelay",
          "type": "uint48"
        },
        {
          "internalType": "uint256",
          "name": "_tokenRewardRate",
          "type": "uint256"
        },
        {
          "internalType": "uint256",
          "name": "_quorum",
          "type": "uint256"
        }
      ],
      "stateMutability": "nonpayable",
      "type": "constructor"
    },
    {
      "inputs": [],
      "name": "AlreadyApproved",
      "type": "error"
    },
    {
      "inputs": [
        {
          "internalType": "string",
          "name": "entity",
          "type": "string"
        },
        {
          "internalType": "uint256",
          "name": "id",
          "type": "uint256"
        }
      ],
      "name": "AlreadyExists",
      "type": "error"
    },
    {
      "inputs": [],
      "name": "AlreadyVoted",
      "type": "error"
    },
    {
      "inputs": [
        {
          "internalType": "string",
          "name": "entity",
          "type": "string"
        }
      ],
      "name": "DoesNotExists",
      "type": "error"
    },
    {
      "inputs": [],
      "name": "DonationAfterProjectCreation",
      "type": "error"
    },
    {
      "inputs": [],
      "name": "DonationMustBeGreaterThanZero",
      "type": "error"
    },
    {
      "inputs": [
        {
          "internalType": "uint256",
          "name": "balance",
          "type": "uint256"
        }
      ],
      "name": "InsufficientBalance",
      "type": "error"
    },
    {
      "inputs": [
        {
          "internalType": "address",
          "name": "_address",
          "type": "address"
        }
      ],
      "name": "InvalidAddress",
      "type": "error"
    },
    {
      "inputs": [
        {
          "internalType": "uint256",
          "name": "provided",
          "type": "uint256"
        },
        {
          "internalType": "uint256",
          "name": "min",
          "type": "uint256"
        },
        {
          "internalType": "uint256",
          "name": "max",
          "type": "uint256"
        }
      ],
      "name": "InvalidAmount",
      "type": "error"
    },
    {
      "inputs": [
        {
          "internalType": "uint256",
          "name": "amount",
          "type": "uint256"
        },
        {
          "internalType": "uint256",
          "name": "divisor",
          "type": "uint256"
        }
      ],
      "name": "InvalidDivisibility",
      "type": "error"
    },
    {
      "inputs": [],
      "name": "InvalidOwner",
      "type": "error"
    },
    {
      "inputs": [
        {
          "internalType": "string",
          "name": "parameter",
          "type": "string"
        }
      ],
      "name": "InvalidParameters",
      "type": "error"
    },
    {
      "inputs": [
        {
          "internalType": "uint256",
          "name": "projectId",
          "type": "uint256"
        },
        {
          "internalType": "enum Chain4Good.ProjectStatus",
          "name": "currentStatus",
          "type": "uint8"
        },
        {
          "internalType": "enum Chain4Good.ProjectStatus",
          "name": "requiredStatus",
          "type": "uint8"
        }
      ],
      "name": "InvalidProjectStatus",
      "type": "error"
    },
    {
      "inputs": [],
      "name": "NotEligibleToVote",
      "type": "error"
    },
    {
      "inputs": [],
      "name": "NotValidAddress",
      "type": "error"
    },
    {
      "inputs": [],
      "name": "OutOfBond",
      "type": "error"
    },
    {
      "inputs": [
        {
          "internalType": "address",
          "name": "owner",
          "type": "address"
        }
      ],
      "name": "OwnableInvalidOwner",
      "type": "error"
    },
    {
      "inputs": [
        {
          "internalType": "address",
          "name": "account",
          "type": "address"
        }
      ],
      "name": "OwnableUnauthorizedAccount",
      "type": "error"
    },
    {
      "inputs": [],
      "name": "ReentrancyGuardReentrantCall",
      "type": "error"
    },
    {
      "inputs": [],
      "name": "SendAmountFailed",
      "type": "error"
    },
    {
      "inputs": [
        {
          "internalType": "uint256",
          "name": "projectId",
          "type": "uint256"
        },
        {
          "internalType": "uint256",
          "name": "currentBlock",
          "type": "uint256"
        },
        {
          "internalType": "uint256",
          "name": "endBlock",
          "type": "uint256"
        }
      ],
      "name": "VotingPeriodNotEnded",
      "type": "error"
    },
    {
      "anonymous": false,
      "inputs": [
        {
          "indexed": true,
          "internalType": "address",
          "name": "associationAddress",
          "type": "address"
        }
      ],
      "name": "AssociationApproved",
      "type": "event"
    },
    {
      "anonymous": false,
      "inputs": [
        {
          "indexed": true,
          "internalType": "address",
          "name": "associationAddress",
          "type": "address"
        },
        {
          "indexed": false,
          "internalType": "string",
          "name": "name",
          "type": "string"
        }
      ],
      "name": "AssociationRegistered",
      "type": "event"
    },
    {
      "anonymous": false,
      "inputs": [
        {
          "indexed": true,
          "internalType": "address",
          "name": "associationAddress",
          "type": "address"
        }
      ],
      "name": "AssociationRejected",
      "type": "event"
    },
    {
      "anonymous": false,
      "inputs": [
        {
          "indexed": false,
          "internalType": "uint256",
          "name": "projectId",
          "type": "uint256"
        },
        {
          "indexed": false,
          "internalType": "uint256",
          "name": "numberOfCoupons",
          "type": "uint256"
        }
      ],
      "name": "CouponsCreated",
      "type": "event"
    },
    {
      "anonymous": false,
      "inputs": [
        {
          "indexed": false,
          "internalType": "address",
          "name": "donatorAddress",
          "type": "address"
        }
      ],
      "name": "DonaterRegistered",
      "type": "event"
    },
    {
      "anonymous": false,
      "inputs": [
        {
          "indexed": true,
          "internalType": "address",
          "name": "donor",
          "type": "address"
        },
        {
          "indexed": false,
          "internalType": "uint8",
          "name": "pool",
          "type": "uint8"
        },
        {
          "indexed": false,
          "internalType": "uint256",
          "name": "amount",
          "type": "uint256"
        }
      ],
      "name": "DonationReceived",
      "type": "event"
    },
    {
      "anonymous": false,
      "inputs": [
        {
          "indexed": true,
          "internalType": "address",
          "name": "previousOwner",
          "type": "address"
        },
        {
          "indexed": true,
          "internalType": "address",
          "name": "newOwner",
          "type": "address"
        }
      ],
      "name": "OwnershipTransferred",
      "type": "event"
    },
    {
      "anonymous": false,
      "inputs": [
        {
          "indexed": false,
          "internalType": "uint256",
          "name": "projectId",
          "type": "uint256"
        },
        {
          "indexed": false,
          "internalType": "enum Chain4Good.PoolType",
          "name": "poolType",
          "type": "uint8"
        },
        {
          "indexed": false,
          "internalType": "uint256",
          "name": "amountRequired",
          "type": "uint256"
        }
      ],
      "name": "ProjectCreated",
      "type": "event"
    },
    {
      "anonymous": false,
      "inputs": [
        {
          "indexed": false,
          "internalType": "uint256",
          "name": "projectId",
          "type": "uint256"
        },
        {
          "indexed": false,
          "internalType": "uint8",
          "name": "status",
          "type": "uint8"
        }
      ],
      "name": "ProjectStatusChanged",
      "type": "event"
    },
    {
      "anonymous": false,
      "inputs": [
        {
          "indexed": false,
          "internalType": "uint256",
          "name": "projectId",
          "type": "uint256"
        },
        {
          "indexed": false,
          "internalType": "address",
          "name": "donor",
          "type": "address"
        },
        {
          "indexed": false,
          "internalType": "bool",
          "name": "vote",
          "type": "bool"
        }
      ],
      "name": "ProjectVoted",
      "type": "event"
    },
    {
      "inputs": [
        {
          "internalType": "address",
          "name": "_wallet",
          "type": "address"
        }
      ],
      "name": "approveAssociation",
      "outputs": [],
      "stateMutability": "nonpayable",
      "type": "function"
    },
    {
      "inputs": [
        {
          "internalType": "uint256",
          "name": "",
          "type": "uint256"
        }
      ],
      "name": "associationWallets",
      "outputs": [
        {
          "internalType": "address",
          "name": "",
          "type": "address"
        }
      ],
      "stateMutability": "view",
      "type": "function"
    },
    {
      "inputs": [
        {
          "internalType": "address",
          "name": "",
          "type": "address"
        }
      ],
      "name": "associations",
      "outputs": [
        {
          "internalType": "string",
          "name": "name",
          "type": "string"
        },
        {
          "internalType": "bool",
          "name": "isApproved",
          "type": "bool"
        }
      ],
      "stateMutability": "view",
      "type": "function"
    },
    {
      "inputs": [
        {
          "internalType": "uint256",
          "name": "_projectId",
          "type": "uint256"
        },
        {
          "internalType": "enum Chain4Good.ProjectStatus",
          "name": "_status",
          "type": "uint8"
        }
      ],
      "name": "changeProjectStatus",
      "outputs": [],
      "stateMutability": "nonpayable",
      "type": "function"
    },
    {
      "inputs": [],
      "name": "couponNFT",
      "outputs": [
        {
          "internalType": "contract CouponNFT",
          "name": "",
          "type": "address"
        }
      ],
      "stateMutability": "view",
      "type": "function"
    },
    {
      "inputs": [
        {
          "internalType": "uint256",
          "name": "_projectId",
          "type": "uint256"
        },
        {
          "internalType": "uint256",
          "name": "couponValue",
          "type": "uint256"
        }
      ],
      "name": "createCoupons",
      "outputs": [],
      "stateMutability": "nonpayable",
      "type": "function"
    },
    {
      "inputs": [
        {
          "internalType": "uint256",
          "name": "_projectId",
          "type": "uint256"
        },
        {
          "internalType": "enum Chain4Good.PoolType",
          "name": "_poolType",
          "type": "uint8"
        },
        {
          "internalType": "uint256",
          "name": "_amountRequired",
          "type": "uint256"
        },
        {
          "internalType": "string",
          "name": "_title",
          "type": "string"
        },
        {
          "internalType": "address",
          "name": "_ong",
          "type": "address"
        },
        {
          "internalType": "address",
          "name": "_partner",
          "type": "address"
        }
      ],
      "name": "createProject",
      "outputs": [],
      "stateMutability": "nonpayable",
      "type": "function"
    },
    {
      "inputs": [
        {
          "internalType": "enum Chain4Good.PoolType",
          "name": "_pool",
          "type": "uint8"
        }
      ],
      "name": "donate",
      "outputs": [],
      "stateMutability": "payable",
      "type": "function"
    },
    {
      "inputs": [
        {
          "internalType": "address",
          "name": "",
          "type": "address"
        }
      ],
      "name": "donators",
      "outputs": [
        {
          "internalType": "bool",
          "name": "isRegistered",
          "type": "bool"
        },
        {
          "internalType": "uint256",
          "name": "firstDonationBlock",
          "type": "uint256"
        }
      ],
      "stateMutability": "view",
      "type": "function"
    },
    {
      "inputs": [
        {
          "internalType": "uint256",
          "name": "_projectId",
          "type": "uint256"
        }
      ],
      "name": "finallizeVotes",
      "outputs": [],
      "stateMutability": "nonpayable",
      "type": "function"
    },
    {
      "inputs": [
        {
          "internalType": "uint256",
          "name": "start",
          "type": "uint256"
        },
        {
          "internalType": "uint256",
          "name": "limit",
          "type": "uint256"
        }
      ],
      "name": "getAllAssociations",
      "outputs": [
        {
          "components": [
            {
              "internalType": "string",
              "name": "name",
              "type": "string"
            },
            {
              "internalType": "bool",
              "name": "isApproved",
              "type": "bool"
            }
          ],
          "internalType": "struct Chain4Good.Association[]",
          "name": "",
          "type": "tuple[]"
        },
        {
          "internalType": "address[]",
          "name": "",
          "type": "address[]"
        }
      ],
      "stateMutability": "view",
      "type": "function"
    },
    {
      "inputs": [
        {
          "internalType": "uint256",
          "name": "start",
          "type": "uint256"
        },
        {
          "internalType": "uint256",
          "name": "limit",
          "type": "uint256"
        }
      ],
      "name": "getAllProjects",
      "outputs": [
        {
          "internalType": "uint256[]",
          "name": "",
          "type": "uint256[]"
        },
        {
          "components": [
            {
              "internalType": "address",
              "name": "ong",
              "type": "address"
            },
            {
              "internalType": "address",
              "name": "partner",
              "type": "address"
            },
            {
              "internalType": "uint256",
              "name": "amountRequired",
              "type": "uint256"
            },
            {
              "internalType": "uint256",
              "name": "yesVotes",
              "type": "uint256"
            },
            {
              "internalType": "uint256",
              "name": "noVotes",
              "type": "uint256"
            },
            {
              "internalType": "uint256",
              "name": "startBlock",
              "type": "uint256"
            },
            {
              "internalType": "string",
              "name": "title",
              "type": "string"
            },
            {
              "internalType": "bool",
              "name": "couponsHasBeenCreated",
              "type": "bool"
            },
            {
              "internalType": "enum Chain4Good.PoolType",
              "name": "poolType",
              "type": "uint8"
            },
            {
              "internalType": "enum Chain4Good.ProjectStatus",
              "name": "status",
              "type": "uint8"
            }
          ],
          "internalType": "struct Chain4Good.Project[]",
          "name": "",
          "type": "tuple[]"
        }
      ],
      "stateMutability": "view",
      "type": "function"
    },
    {
      "inputs": [
        {
          "internalType": "address",
          "name": "_association",
          "type": "address"
        }
      ],
      "name": "getAssociation",
      "outputs": [
        {
          "internalType": "string",
          "name": "name",
          "type": "string"
        },
        {
          "internalType": "bool",
          "name": "isApproved",
          "type": "bool"
        }
      ],
      "stateMutability": "view",
      "type": "function"
    },
    {
      "inputs": [
        {
          "internalType": "enum Chain4Good.PoolType",
          "name": "_pool",
          "type": "uint8"
        },
        {
          "internalType": "address",
          "name": "_donor",
          "type": "address"
        }
      ],
      "name": "getContribution",
      "outputs": [
        {
          "internalType": "uint256",
          "name": "",
          "type": "uint256"
        }
      ],
      "stateMutability": "view",
      "type": "function"
    },
    {
      "inputs": [
        {
          "internalType": "enum Chain4Good.PoolType",
          "name": "_pool",
          "type": "uint8"
        }
      ],
      "name": "getPoolBalances",
      "outputs": [
        {
          "internalType": "uint256",
          "name": "",
          "type": "uint256"
        }
      ],
      "stateMutability": "view",
      "type": "function"
    },
    {
      "inputs": [
        {
          "internalType": "uint256",
          "name": "_projectId",
          "type": "uint256"
        }
      ],
      "name": "getProject",
      "outputs": [
        {
          "components": [
            {
              "internalType": "address",
              "name": "ong",
              "type": "address"
            },
            {
              "internalType": "address",
              "name": "partner",
              "type": "address"
            },
            {
              "internalType": "uint256",
              "name": "amountRequired",
              "type": "uint256"
            },
            {
              "internalType": "uint256",
              "name": "yesVotes",
              "type": "uint256"
            },
            {
              "internalType": "uint256",
              "name": "noVotes",
              "type": "uint256"
            },
            {
              "internalType": "uint256",
              "name": "startBlock",
              "type": "uint256"
            },
            {
              "internalType": "string",
              "name": "title",
              "type": "string"
            },
            {
              "internalType": "bool",
              "name": "couponsHasBeenCreated",
              "type": "bool"
            },
            {
              "internalType": "enum Chain4Good.PoolType",
              "name": "poolType",
              "type": "uint8"
            },
            {
              "internalType": "enum Chain4Good.ProjectStatus",
              "name": "status",
              "type": "uint8"
            }
          ],
          "internalType": "struct Chain4Good.Project",
          "name": "",
          "type": "tuple"
        }
      ],
      "stateMutability": "view",
      "type": "function"
    },
    {
      "inputs": [],
      "name": "owner",
      "outputs": [
        {
          "internalType": "address",
          "name": "",
          "type": "address"
        }
      ],
      "stateMutability": "view",
      "type": "function"
    },
    {
      "inputs": [
        {
          "internalType": "enum Chain4Good.PoolType",
          "name": "",
          "type": "uint8"
        }
      ],
      "name": "pools",
      "outputs": [
        {
          "internalType": "uint256",
          "name": "balance",
          "type": "uint256"
        }
      ],
      "stateMutability": "view",
      "type": "function"
    },
    {
      "inputs": [
        {
          "internalType": "uint256",
          "name": "",
          "type": "uint256"
        }
      ],
      "name": "projectIds",
      "outputs": [
        {
          "internalType": "uint256",
          "name": "",
          "type": "uint256"
        }
      ],
      "stateMutability": "view",
      "type": "function"
    },
    {
      "inputs": [
        {
          "internalType": "uint256",
          "name": "",
          "type": "uint256"
        }
      ],
      "name": "projects",
      "outputs": [
        {
          "internalType": "address",
          "name": "ong",
          "type": "address"
        },
        {
          "internalType": "address",
          "name": "partner",
          "type": "address"
        },
        {
          "internalType": "uint256",
          "name": "amountRequired",
          "type": "uint256"
        },
        {
          "internalType": "uint256",
          "name": "yesVotes",
          "type": "uint256"
        },
        {
          "internalType": "uint256",
          "name": "noVotes",
          "type": "uint256"
        },
        {
          "internalType": "uint256",
          "name": "startBlock",
          "type": "uint256"
        },
        {
          "internalType": "string",
          "name": "title",
          "type": "string"
        },
        {
          "internalType": "bool",
          "name": "couponsHasBeenCreated",
          "type": "bool"
        },
        {
          "internalType": "enum Chain4Good.PoolType",
          "name": "poolType",
          "type": "uint8"
        },
        {
          "internalType": "enum Chain4Good.ProjectStatus",
          "name": "status",
          "type": "uint8"
        }
      ],
      "stateMutability": "view",
      "type": "function"
    },
    {
      "inputs": [],
      "name": "quorum",
      "outputs": [
        {
          "internalType": "uint256",
          "name": "",
          "type": "uint256"
        }
      ],
      "stateMutability": "view",
      "type": "function"
    },
    {
      "inputs": [
        {
          "internalType": "string",
          "name": "_name",
          "type": "string"
        },
        {
          "internalType": "address",
          "name": "_wallet",
          "type": "address"
        }
      ],
      "name": "registerAssociation",
      "outputs": [],
      "stateMutability": "nonpayable",
      "type": "function"
    },
    {
      "inputs": [
        {
          "internalType": "address",
          "name": "_wallet",
          "type": "address"
        }
      ],
      "name": "rejectAssociation",
      "outputs": [],
      "stateMutability": "nonpayable",
      "type": "function"
    },
    {
      "inputs": [],
      "name": "renounceOwnership",
      "outputs": [],
      "stateMutability": "nonpayable",
      "type": "function"
    },
    {
      "inputs": [
        {
          "internalType": "uint256",
          "name": "_tokenRewardRate",
          "type": "uint256"
        }
      ],
      "name": "setRewardRate",
      "outputs": [],
      "stateMutability": "nonpayable",
      "type": "function"
    },
    {
      "inputs": [],
      "name": "tokenRewardRate",
      "outputs": [
        {
          "internalType": "uint256",
          "name": "",
          "type": "uint256"
        }
      ],
      "stateMutability": "view",
      "type": "function"
    },
    {
      "inputs": [
        {
          "internalType": "address",
          "name": "newOwner",
          "type": "address"
        }
      ],
      "name": "transferOwnership",
      "outputs": [],
      "stateMutability": "nonpayable",
      "type": "function"
    },
    {
      "inputs": [],
      "name": "veraToken",
      "outputs": [
        {
          "internalType": "contract VeraToken",
          "name": "",
          "type": "address"
        }
      ],
      "stateMutability": "view",
      "type": "function"
    },
    {
      "inputs": [
        {
          "internalType": "uint256",
          "name": "_projectId",
          "type": "uint256"
        },
        {
          "internalType": "bool",
          "name": "_vote",
          "type": "bool"
        }
      ],
      "name": "voteOnProject",
      "outputs": [],
      "stateMutability": "nonpayable",
      "type": "function"
    },
    {
      "inputs": [],
      "name": "votingDelay",
      "outputs": [
        {
          "internalType": "uint256",
          "name": "",
          "type": "uint256"
        }
      ],
      "stateMutability": "view",
      "type": "function"
    }
  ],
  "bytecode": "0x608060405234801561001057600080fd5b5060405161301538038061301583398101604081905261002f9161025a565b338061005657604051631e4fbdf760e01b8152600060048201526024015b60405180910390fd5b61005f816101f2565b5060018055848465ffffffffffff85168484846001600160a01b0381166100a557604051634726455360e11b81526001600160a01b03909116600482015260240161004d565b50836001600160a01b0381166100da57604051634726455360e11b81526001600160a01b03909116600482015260240161004d565b506000831161011a5760405163dd23c3ad60e01b815260206004820152600b60248201526a766f74696e6744656c617960a81b604482015260640161004d565b6000821161015d5760405163dd23c3ad60e01b815260206004820152600f60248201526e746f6b656e5265776172645261746560881b604482015260640161004d565b60008111801561016e575060648111155b6101a45760405163dd23c3ad60e01b815260206004820152600660248201526571756f72756d60d01b604482015260640161004d565b5050600280546001600160a01b03998a166001600160a01b03199182161790915560038054989099169716969096179096555065ffffffffffff909216600455600555600655506102c39050565b600080546001600160a01b038381166001600160a01b0319831681178455604051919092169283917f8be0079c531659141344cd1fd0a4f28419497f9722a3daafe3b4186f6b6457e09190a35050565b6001600160a01b038116811461025757600080fd5b50565b600080600080600060a0868803121561027257600080fd5b855161027d81610242565b602087015190955061028e81610242565b604087015190945065ffffffffffff811681146102aa57600080fd5b6060870151608090970151959894975095949392505050565b612d43806102d26000396000f3fe6080604052600436106101cd5760003560e01c80638e669ca6116100f7578063d24f8cdd11610095578063f2fde38b11610064578063f2fde38b14610577578063f7d52d9514610597578063fa155517146105b7578063fb87a635146105e557600080fd5b8063d24f8cdd146104c6578063e13c649114610517578063e5b0b36b14610537578063f0f3f2c81461054a57600080fd5b80639e447fc6116100d15780639e447fc6146104465780639ea65d6c14610466578063af123e9f14610486578063c7acf258146104a657600080fd5b80638e669ca6146103d857806392ce70ed146103f857806395d1d4c51461042657600080fd5b8063297d57eb1161016f57806348c35ad41161013e57806348c35ad41461035b5780635660000a1461037b578063715018a6146103915780638da5cb5b146103a657600080fd5b8063297d57eb146102e55780633932abb1146103055780633d79ee411461031b5780634339e6121461033b57600080fd5b80631703a018116101ab5780631703a01814610253578063189c95f11461027757806321b5f6a2146102a557806326eb254e146102c557600080fd5b8063107046bd146101d25780631204a89a146102115780631593d6e714610233575b600080fd5b3480156101de57600080fd5b506101f26101ed3660046122fc565b610612565b6040516102089a99989796959493929190612395565b60405180910390f35b34801561021d57600080fd5b5061023161022c36600461242f565b610702565b005b34801561023f57600080fd5b5061023161024e3660046122fc565b6107e4565b34801561025f57600080fd5b5061026960065481565b604051908152602001610208565b34801561028357600080fd5b50610297610292366004612451565b61095e565b604051610208929190612527565b3480156102b157600080fd5b506102316102c03660046125c9565b610c41565b3480156102d157600080fd5b506102696102e036600461260c565b610cb4565b3480156102f157600080fd5b50610231610300366004612451565b610d1b565b34801561031157600080fd5b5061026960045481565b34801561032757600080fd5b5061026961033636600461263f565b61101b565b34801561034757600080fd5b5061023161035636600461265a565b61105b565b34801561036757600080fd5b506102696103763660046122fc565b611345565b34801561038757600080fd5b5061026960055481565b34801561039d57600080fd5b50610231611366565b3480156103b257600080fd5b506000546001600160a01b03165b6040516001600160a01b039091168152602001610208565b3480156103e457600080fd5b506102316103f33660046126c6565b61137a565b34801561040457600080fd5b5061041861041336600461242f565b61160e565b60405161020892919061274f565b34801561043257600080fd5b5061041861044136600461242f565b611710565b34801561045257600080fd5b506102316104613660046122fc565b6117b7565b34801561047257600080fd5b506103c06104813660046122fc565b6117c4565b34801561049257600080fd5b506003546103c0906001600160a01b031681565b3480156104b257600080fd5b506002546103c0906001600160a01b031681565b3480156104d257600080fd5b506105006104e136600461242f565b6009602052600090815260409020805460019091015460ff9091169082565b604080519215158352602083019190915201610208565b34801561052357600080fd5b50610231610532366004612773565b6117ee565b61023161054536600461263f565b6119d1565b34801561055657600080fd5b5061056a6105653660046122fc565b611bc9565b60405161020891906127c7565b34801561058357600080fd5b5061023161059236600461242f565b611d4d565b3480156105a357600080fd5b506102316105b236600461242f565b611d8b565b3480156105c357600080fd5b506105d76105d2366004612451565b611f3b565b60405161020892919061281f565b3480156105f157600080fd5b5061026961060036600461263f565b600a6020526000908152604090205481565b600c6020526000908152604090208054600182015460028301546003840154600485015460058601546006870180546001600160a01b039788169896909716969495939492939192610663906128ad565b80601f016020809104026020016040519081016040528092919081815260200182805461068f906128ad565b80156106dc5780601f106106b1576101008083540402835291602001916106dc565b820191906000526020600020905b8154815290600101906020018083116106bf57829003601f168201915b5050506007909301549192505060ff80821691610100810482169162010000909104168a565b61070a6121b5565b6001600160a01b0381166000908152600b60205260408120805461072d906128ad565b90501161075657604051630f31fc5360e31b815260040161074d906128e7565b60405180910390fd5b6001600160a01b0381166000908152600b602052604090206001015460ff16156107935760405163080fc0bd60e11b815260040160405180910390fd5b6001600160a01b0381166000818152600b60205260408082206001908101805460ff19169091179055517f59b84723093522a098b6b91a121cd522e9bbfb32caf7ed5e8a29a8c2f26aa8f59190a250565b6107ec6121b5565b6000818152600c6020526040812060020154900361083757604051630f31fc5360e31b81526020600482015260076024820152661c1c9bda9958dd60ca1b604482015260640161074d565b6004546000828152600c60205260409020600501546108569190612922565b4310158143600454600c60008681526020019081526020016000206005015461087f9190612922565b9091926108b057604051630715c91160e21b815260048101939093526024830191909152604482015260640161074d565b5050506000818152600c602052604090206004810154600382015411156108e95760078101805462ff00001916620100001790556108fd565b60078101805462ff00001916620200001790555b60078101547f35872be4c2085eaf9ca9a10d056eefec79968f825846792411ede75f331e939290839062010000900460ff1660048111156109405761094061235b565b6040805192835260ff90911660208301520160405180910390a15050565b600754606090819084106109855760405163d44197ab60e01b815260040160405180910390fd5b6007546000906109958587612922565b116109a9576109a48486612922565b6109ad565b6007545b905060006109bb8683612935565b67ffffffffffffffff8111156109d3576109d3612948565b604051908082528060200260200182016040528015610a0c57816020015b6109f961225c565b8152602001906001900390816109f15790505b509050855b82811015610bdd57600c600060078381548110610a3057610a3061295e565b60009182526020808320909101548352828101939093526040918201902081516101408101835281546001600160a01b039081168252600183015416938101939093526002810154918301919091526003810154606083015260048101546080830152600581015460a083015260068101805460c084019190610ab2906128ad565b80601f0160208091040260200160405190810160405280929190818152602001828054610ade906128ad565b8015610b2b5780601f10610b0057610100808354040283529160200191610b2b565b820191906000526020600020905b815481529060010190602001808311610b0e57829003601f168201915b5050509183525050600782015460ff80821615156020840152604090920191610100909104166005811115610b6257610b6261235b565b6005811115610b7357610b7361235b565b81526020016007820160029054906101000a900460ff166004811115610b9b57610b9b61235b565b6004811115610bac57610bac61235b565b90525082610bba8984612935565b81518110610bca57610bca61295e565b6020908102919091010152600101610a11565b5060078181805480602002602001604051908101604052809291908181526020018280548015610c2c57602002820191906000526020600020905b815481526020019060010190808311610c18575b505050505091509350935050505b9250929050565b610c496121b5565b6000828152600c60205260409020600701805482919062ff0000191662010000836004811115610c7b57610c7b61235b565b02179055507f35872be4c2085eaf9ca9a10d056eefec79968f825846792411ede75f331e9392828260048111156109405761094061235b565b6000600a6000846005811115610ccc57610ccc61235b565b6005811115610cdd57610cdd61235b565b81526020019081526020016000206001016000836001600160a01b03166001600160a01b031681526020019081526020016000205490505b92915050565b610d236121e2565b6000828152600c602052604090206002810154610d4190839061298a565b6000848152600c602052604090206002015490839015610d7d57604051635f5f720160e01b81526004810192909252602482015260440161074d565b5060019050600782015462010000900460ff166004811115610da157610da161235b565b6000858152600c602052604090206007015485926201000090910460ff169160019114610de457604051630f05ff0160e11b815260040161074d9392919061299e565b505081546001600160a01b031633149050610e12576040516349e27cff60e01b815260040160405180910390fd5b6007810154839060ff1615610e5e576040805163a6894fe760e01b815260048101919091526007604482015266436f75706f6e7360c81b6064820152602481019190915260840161074d565b5060035460028201546040516000926001600160a01b031691908381818185875af1925050503d8060008114610eb0576040519150601f19603f3d011682016040523d82523d6000602084013e610eb5565b606091505b5050905080610ed757604051637a1ba5cd60e01b815260040160405180910390fd5b6000848152600c6020526040812060020154610ef49085906129c7565b6003546001850154604051630772717960e11b815260048101889052602481018990526001600160a01b039182166044820152606481018490529293501690630ee4e2f2906084016000604051808303816000875af1158015610f5b573d6000803e3d6000fd5b505050506040513d6000823e601f3d908101601f19168201604052610f8391908101906129db565b506007830180546203000162ff00ff1990911617905560408051868152600360208201527f35872be4c2085eaf9ca9a10d056eefec79968f825846792411ede75f331e9392910160405180910390a160408051868152602081018390527f3fd7c07f90e3e6ff7c56520539b8238e5170190baf540caea60e096d7fc6e2be910160405180910390a150505061101760018055565b5050565b6000600a60008360058111156110335761103361235b565b60058111156110445761104461235b565b815260208101919091526040016000205492915050565b6000828152600c6020908152604080832033808552600990935281842060025492516370a0823160e01b815260048101949094529093909290916001600160a01b0316906370a0823190602401602060405180830381865afa1580156110c5573d6000803e3d6000fd5b505050506040513d601f19601f820116820180604052508101906110e99190612aa8565b6000868152600284016020526040902083549192509060ff1661111f576040516349e27cff60e01b815260040160405180910390fd5b836005015460000361115e57604051630f31fc5360e31b81526020600482015260076024820152661c1c9bda9958dd60ca1b604482015260640161074d565b83600501548360010154106111865760405163c35ae40160e01b815260040160405180910390fd5b6000600a60008660070160019054906101000a900460ff1660058111156111af576111af61235b565b60058111156111c0576111c061235b565b815260208082019290925260409081016000908120338252600101909252902054116111ff57604051637fb16f1b60e01b815260040160405180910390fd5b6000600785015462010000900460ff1660048111156112205761122061235b565b14868560070160029054906101000a900460ff16600090919261125957604051630f05ff0160e11b815260040161074d9392919061299e565b50505060008211829061128257604051639266535160e01b815260040161074d91815260200190565b50805460ff16156112a657604051637c9a1cf960e01b815260040160405180910390fd5b8054851580156101000261ffff199092169190911760011782556112e357818460030160008282546112d89190612922565b909155506112fd9050565b818460040160008282546112f79190612922565b90915550505b604080518781523360208201528615158183015290517f90e745fb7ec06d6679dec571bb9b4e828cf2e1fed54f61c21bb55913fd9ac8b69181900360600190a1505050505050565b6007818154811061135557600080fd5b600091825260209091200154905081565b61136e6121b5565b611378600061220c565b565b6113826121b5565b6000851180156113ca5750600a60008760058111156113a3576113a361235b565b60058111156113b4576113b461235b565b8152602001908152602001600020600001548511155b856001600a60008a60058111156113e3576113e361235b565b60058111156113f4576113f461235b565b815260200190815260200160002060000154909192611437576040516346f4384b60e01b815260048101939093526024830191909152604482015260640161074d565b5050506000878152600c6020526040902060050154879015611490576040805163a6894fe760e01b815260048101919091526007604482015266141c9bda9958dd60ca1b6064820152602481019190915260840161074d565b50816001600160a01b0381166114c557604051634726455360e11b81526001600160a01b03909116600482015260240161074d565b50806001600160a01b0381166114fa57604051634726455360e11b81526001600160a01b03909116600482015260240161074d565b506000878152600c60205260409020600701805487919061ff00191661010083600581111561152b5761152b61235b565b02179055506000878152600c602052604090206002810186905560078101805462ff00001916905580546001600160a01b038481166001600160a01b031992831617835560018301805491851691909216179055436005820155600601611593848683612b10565b50600780546001810182556000919091527fa66cc928b5edb82af9bd49922954155ab7b0942694bea4ce44661d9a8736c688018790556040517f2f4a5d17505b4a607156ff4b360be8d9bbd4e35be471c9ca2f11a0dad827be34906115fd90899089908990612bd0565b60405180910390a150505050505050565b6001600160a01b0381166000908152600b602052604081208054606092918291611637906128ad565b90501161165757604051630f31fc5360e31b815260040161074d906128e7565b6001600160a01b0383166000908152600b602052604090206001810154815460ff909116908290611687906128ad565b80601f01602080910402602001604051908101604052809291908181526020018280546116b3906128ad565b80156117005780601f106116d557610100808354040283529160200191611700565b820191906000526020600020905b8154815290600101906020018083116116e357829003601f168201915b5050505050915091509150915091565b600b6020526000908152604090208054819061172b906128ad565b80601f0160208091040260200160405190810160405280929190818152602001828054611757906128ad565b80156117a45780601f10611779576101008083540402835291602001916117a4565b820191906000526020600020905b81548152906001019060200180831161178757829003601f168201915b5050506001909301549192505060ff1682565b6117bf6121b5565b600555565b600881815481106117d457600080fd5b6000918252602090912001546001600160a01b0316905081565b806001600160a01b03811661181657604051636e5ec59f60e01b815260040160405180910390fd5b8261184d5760405163dd23c3ad60e01b815260040161074d906020808252600490820152634e616d6560e01b604082015260600190565b6001600160a01b0382166000908152600b602052604090208054611870906128ad565b6001600160a01b0384169150156118c2576040805163a6894fe760e01b81526004810191909152600b60448201526a20b9b9b7b1b4b0ba34b7b760a91b6064820152602481019190915260840161074d565b506040805160606020601f87018190040282018101835291810185815290918291908790879081908501838280828437600092018290525093855250505060209182018190526001600160a01b0385168152600b909152604090208151819061192b9082612bf2565b50602091909101516001918201805460ff19169115159190911790556008805491820181556000527ff3f7a9fe364faab93b216da50a3214154f22a0a2b415b23a84c8169e8b636ee30180546001600160a01b0319166001600160a01b0384169081179091556040517f9b7e0bbd8d22988d9e58388ab24023d1bf94589f925123e43b88d6f303da744d906119c39087908790612cb1565b60405180910390a250505050565b346000036119f2576040516310da36dd60e21b815260040160405180910390fd5b34600a6000836005811115611a0957611a0961235b565b6005811115611a1a57611a1a61235b565b81526020019081526020016000206000016000828254611a3a9190612922565b90915550349050600a6000836005811115611a5757611a5761235b565b6005811115611a6857611a6861235b565b81526020019081526020016000206001016000336001600160a01b03166001600160a01b031681526020019081526020016000206000828254611aab9190612922565b90915550503360009081526009602052604090205460ff16611aea5733600090815260096020526040902043600180830191909155815460ff19161790555b6000611afe67016345785d8a0000346129c7565b611b0990600a612ce0565b6002546040516340c10f1960e01b8152336004820152602481018390529192506001600160a01b0316906340c10f1990604401600060405180830381600087803b158015611b5657600080fd5b505af1158015611b6a573d6000803e3d6000fd5b50505050336001600160a01b03167ffe583919ec07beba8a77df69e4cf92a659a70e45c536d8d6f02d8399d68e1497836005811115611bab57611bab61235b565b6040805160ff90921682523460208301520160405180910390a25050565b611bd161225c565b6000828152600c602090815260409182902082516101408101845281546001600160a01b039081168252600183015416928101929092526002810154928201929092526003820154606082015260048201546080820152600582015460a082015260068201805491929160c084019190611c4a906128ad565b80601f0160208091040260200160405190810160405280929190818152602001828054611c76906128ad565b8015611cc35780601f10611c9857610100808354040283529160200191611cc3565b820191906000526020600020905b815481529060010190602001808311611ca657829003601f168201915b5050509183525050600782015460ff80821615156020840152604090920191610100909104166005811115611cfa57611cfa61235b565b6005811115611d0b57611d0b61235b565b81526020016007820160029054906101000a900460ff166004811115611d3357611d3361235b565b6004811115611d4457611d4461235b565b90525092915050565b611d556121b5565b6001600160a01b038116611d7f57604051631e4fbdf760e01b81526000600482015260240161074d565b611d888161220c565b50565b611d936121b5565b6001600160a01b0381166000908152600b602052604081208054611db6906128ad565b905011611dd657604051630f31fc5360e31b815260040161074d906128e7565b60005b600854811015611ed457816001600160a01b031660088281548110611e0057611e0061295e565b6000918252602090912001546001600160a01b031603611ecc5760088054611e2a90600190612935565b81548110611e3a57611e3a61295e565b600091825260209091200154600880546001600160a01b039092169183908110611e6657611e6661295e565b9060005260206000200160006101000a8154816001600160a01b0302191690836001600160a01b031602179055506008805480611ea557611ea5612cf7565b600082815260209020810160001990810180546001600160a01b0319169055019055611ed4565b600101611dd9565b506001600160a01b0381166000908152600b6020526040812090611ef882826122ae565b50600101805460ff191690556040516001600160a01b038216907f5f0318cd05dddbbde99cf8183ba2941da11dbb1e968cfc4f9cffe172d317b71e90600090a250565b60085460609081908410611f915760405162461bcd60e51b815260206004820152601960248201527f537461727420696e646578206f7574206f6620626f756e647300000000000000604482015260640161074d565b600854600090611fa18587612922565b11611fb557611fb08486612922565b611fb9565b6008545b90506000611fc78683612935565b67ffffffffffffffff811115611fdf57611fdf612948565b60405190808252806020026020018201604052801561202557816020015b604080518082019091526060815260006020820152815260200190600190039081611ffd5790505b509050855b8281101561214857600b6000600883815481106120495761204961295e565b60009182526020808320909101546001600160a01b0316835282019290925260409081019091208151808301909252805482908290612087906128ad565b80601f01602080910402602001604051908101604052809291908181526020018280546120b3906128ad565b80156121005780601f106120d557610100808354040283529160200191612100565b820191906000526020600020905b8154815290600101906020018083116120e357829003601f168201915b50505091835250506001919091015460ff161515602090910152826121258984612935565b815181106121355761213561295e565b602090810291909101015260010161202a565b50806008808054806020026020016040519081016040528092919081815260200182805480156121a157602002820191906000526020600020905b81546001600160a01b03168152600190910190602001808311612183575b505050505090509350935050509250929050565b6000546001600160a01b031633146113785760405163118cdaa760e01b815233600482015260240161074d565b60026001540361220557604051633ee5aeb560e01b815260040160405180910390fd5b6002600155565b600080546001600160a01b038381166001600160a01b0319831681178455604051919092169283917f8be0079c531659141344cd1fd0a4f28419497f9722a3daafe3b4186f6b6457e09190a35050565b604080516101408101825260008082526020820181905291810182905260608082018390526080820183905260a0820183905260c082015260e081018290529061010082019081526020016000905290565b5080546122ba906128ad565b6000825580601f106122ca575050565b601f016020900490600052602060002090810190611d8891905b808211156122f857600081556001016122e4565b5090565b60006020828403121561230e57600080fd5b5035919050565b6000815180845260005b8181101561233b5760208185018101518683018201520161231f565b506000602082860101526020601f19601f83011685010191505092915050565b634e487b7160e01b600052602160045260246000fd5b600681106123815761238161235b565b9052565b600581106123815761238161235b565b6001600160a01b038b811682528a16602082015260408101899052606081018890526080810187905260a0810186905261014060c082018190526000906123de90830187612315565b905084151560e08301526123f6610100830185612371565b612404610120830184612385565b9b9a5050505050505050505050565b80356001600160a01b038116811461242a57600080fd5b919050565b60006020828403121561244157600080fd5b61244a82612413565b9392505050565b6000806040838503121561246457600080fd5b50508035926020909101359150565b80516001600160a01b031682526000602082015161249c60208501826001600160a01b03169052565b5060408201516040840152606082015160608401526080820151608084015260a082015160a084015260c082015161014060c08501526124e0610140850182612315565b905060e08301516124f560e086018215159052565b5061010083015161250a610100860182612371565b5061012083015161251f610120860182612385565b509392505050565b6040808252835190820181905260009060208501906060840190835b81811015612561578351835260209384019390920191600101612543565b50508381036020850152809150845180825260208201925060208160051b8301016020870160005b838110156125bb57601f198584030186526125a5838351612473565b6020968701969093509190910190600101612589565b509098975050505050505050565b600080604083850312156125dc57600080fd5b823591506020830135600581106125f257600080fd5b809150509250929050565b80356006811061242a57600080fd5b6000806040838503121561261f57600080fd5b612628836125fd565b915061263660208401612413565b90509250929050565b60006020828403121561265157600080fd5b61244a826125fd565b6000806040838503121561266d57600080fd5b82359150602083013580151581146125f257600080fd5b60008083601f84011261269657600080fd5b50813567ffffffffffffffff8111156126ae57600080fd5b602083019150836020828501011115610c3a57600080fd5b600080600080600080600060c0888a0312156126e157600080fd5b873596506126f1602089016125fd565b955060408801359450606088013567ffffffffffffffff81111561271457600080fd5b6127208a828b01612684565b9095509350612733905060808901612413565b915061274160a08901612413565b905092959891949750929550565b6040815260006127626040830185612315565b905082151560208301529392505050565b60008060006040848603121561278857600080fd5b833567ffffffffffffffff81111561279f57600080fd5b6127ab86828701612684565b90945092506127be905060208501612413565b90509250925092565b60208152600061244a6020830184612473565b600081518084526020840193506020830160005b828110156128155781516001600160a01b03168652602095860195909101906001016127ee565b5093949350505050565b6000604082016040835280855180835260608501915060608160051b86010192506020870160005b8281101561288e57605f19878603018452815180516040875261286d6040880182612315565b60209283015115159783019790975250938401939190910190600101612847565b5050505082810360208401526128a481856127da565b95945050505050565b600181811c908216806128c157607f821691505b6020821081036128e157634e487b7160e01b600052602260045260246000fd5b50919050565b6020808252600b908201526a30b9b9b7b1b4b0ba34b7b760a91b604082015260600190565b634e487b7160e01b600052601160045260246000fd5b80820180821115610d1557610d1561290c565b81810381811115610d1557610d1561290c565b634e487b7160e01b600052604160045260246000fd5b634e487b7160e01b600052603260045260246000fd5b634e487b7160e01b600052601260045260246000fd5b60008261299957612999612974565b500690565b838152606081016129b26020830185612385565b6129bf6040830184612385565b949350505050565b6000826129d6576129d6612974565b500490565b6000602082840312156129ed57600080fd5b815167ffffffffffffffff811115612a0457600080fd5b8201601f81018413612a1557600080fd5b805167ffffffffffffffff811115612a2f57612a2f612948565b8060051b604051601f19603f830116810181811067ffffffffffffffff82111715612a5c57612a5c612948565b604052918252602081840181019290810187841115612a7a57600080fd5b6020850194505b83851015612a9d57845180825260209586019590935001612a81565b509695505050505050565b600060208284031215612aba57600080fd5b5051919050565b601f821115612b0b57806000526020600020601f840160051c81016020851015612ae85750805b601f840160051c820191505b81811015612b085760008155600101612af4565b50505b505050565b67ffffffffffffffff831115612b2857612b28612948565b612b3c83612b3683546128ad565b83612ac1565b6000601f841160018114612b705760008515612b585750838201355b600019600387901b1c1916600186901b178355612b08565b600083815260209020601f19861690835b82811015612ba15786850135825560209485019460019092019101612b81565b5086821015612bbe5760001960f88860031b161c19848701351681555b505060018560011b0183555050505050565b83815260608101612be46020830185612371565b826040830152949350505050565b815167ffffffffffffffff811115612c0c57612c0c612948565b612c2081612c1a84546128ad565b84612ac1565b6020601f821160018114612c545760008315612c3c5750848201515b600019600385901b1c1916600184901b178455612b08565b600084815260208120601f198516915b82811015612c845787850151825560209485019460019092019101612c64565b5084821015612ca25786840151600019600387901b60f8161c191681555b50505050600190811b01905550565b60208152816020820152818360408301376000818301604090810191909152601f909201601f19160101919050565b8082028115828204841417610d1557610d1561290c565b634e487b7160e01b600052603160045260246000fdfea2646970667358221220d23113b46e67c4f424aee29132b87586c94851108fe82678dd81667ac760c29964736f6c634300081c0033",
  "linkReferences": {},
  "deployedLinkReferences": {}
}