{
  "_format": "hh-sol-artifact-1",
  "contractName": "CouponNFT",
  "sourceName": "contracts/CouponNFT.sol",
  "abi": [
    {
      "inputs": [
        {
          "internalType": "address",
          "name": "initialOwner",
          "type": "address"
        }
      ],
      "stateMutability": "nonpayable",
      "type": "constructor"
    },
    {
      "inputs": [
        {
          "internalType": "address",
          "name": "sender",
          "type": "address"
        },
        {
          "internalType": "uint256",
          "name": "tokenId",
          "type": "uint256"
        },
        {
          "internalType": "address",
          "name": "owner",
          "type": "address"
        }
      ],
      "name": "ERC721IncorrectOwner",
      "type": "error"
    },
    {
      "inputs": [
        {
          "internalType": "address",
          "name": "operator",
          "type": "address"
        },
        {
          "internalType": "uint256",
          "name": "tokenId",
          "type": "uint256"
        }
      ],
      "name": "ERC721InsufficientApproval",
      "type": "error"
    },
    {
      "inputs": [
        {
          "internalType": "address",
          "name": "approver",
          "type": "address"
        }
      ],
      "name": "ERC721InvalidApprover",
      "type": "error"
    },
    {
      "inputs": [
        {
          "internalType": "address",
          "name": "operator",
          "type": "address"
        }
      ],
      "name": "ERC721InvalidOperator",
      "type": "error"
    },
    {
      "inputs": [
        {
          "internalType": "address",
          "name": "owner",
          "type": "address"
        }
      ],
      "name": "ERC721InvalidOwner",
      "type": "error"
    },
    {
      "inputs": [
        {
          "internalType": "address",
          "name": "receiver",
          "type": "address"
        }
      ],
      "name": "ERC721InvalidReceiver",
      "type": "error"
    },
    {
      "inputs": [
        {
          "internalType": "address",
          "name": "sender",
          "type": "address"
        }
      ],
      "name": "ERC721InvalidSender",
      "type": "error"
    },
    {
      "inputs": [
        {
          "internalType": "uint256",
          "name": "tokenId",
          "type": "uint256"
        }
      ],
      "name": "ERC721NonexistentToken",
      "type": "error"
    },
    {
      "inputs": [],
      "name": "FailedTransfer",
      "type": "error"
    },
    {
      "inputs": [],
      "name": "InsuffisiantBalance",
      "type": "error"
    },
    {
      "inputs": [],
      "name": "NonexistentCoupon",
      "type": "error"
    },
    {
      "inputs": [],
      "name": "NotCouponOwner",
      "type": "error"
    },
    {
      "inputs": [
        {
          "internalType": "address",
          "name": "owner",
          "type": "address"
        }
      ],
      "name": "OwnableInvalidOwner",
      "type": "error"
    },
    {
      "inputs": [
        {
          "internalType": "address",
          "name": "account",
          "type": "address"
        }
      ],
      "name": "OwnableUnauthorizedAccount",
      "type": "error"
    },
    {
      "anonymous": false,
      "inputs": [
        {
          "indexed": true,
          "internalType": "address",
          "name": "owner",
          "type": "address"
        },
        {
          "indexed": true,
          "internalType": "address",
          "name": "approved",
          "type": "address"
        },
        {
          "indexed": true,
          "internalType": "uint256",
          "name": "tokenId",
          "type": "uint256"
        }
      ],
      "name": "Approval",
      "type": "event"
    },
    {
      "anonymous": false,
      "inputs": [
        {
          "indexed": true,
          "internalType": "address",
          "name": "owner",
          "type": "address"
        },
        {
          "indexed": true,
          "internalType": "address",
          "name": "operator",
          "type": "address"
        },
        {
          "indexed": false,
          "internalType": "bool",
          "name": "approved",
          "type": "bool"
        }
      ],
      "name": "ApprovalForAll",
      "type": "event"
    },
    {
      "anonymous": false,
      "inputs": [
        {
          "indexed": false,
          "internalType": "uint256",
          "name": "_fromTokenId",
          "type": "uint256"
        },
        {
          "indexed": false,
          "internalType": "uint256",
          "name": "_toTokenId",
          "type": "uint256"
        }
      ],
      "name": "BatchMetadataUpdate",
      "type": "event"
    },
    {
      "anonymous": false,
      "inputs": [
        {
          "indexed": true,
          "internalType": "uint256",
          "name": "tokenId",
          "type": "uint256"
        },
        {
          "indexed": true,
          "internalType": "uint256",
          "name": "projectId",
          "type": "uint256"
        },
        {
          "indexed": true,
          "internalType": "address",
          "name": "redeemer",
          "type": "address"
        },
        {
          "indexed": false,
          "internalType": "uint256",
          "name": "value",
          "type": "uint256"
        }
      ],
      "name": "CouponRedeemed",
      "type": "event"
    },
    {
      "anonymous": false,
      "inputs": [
        {
          "indexed": false,
          "internalType": "uint256",
          "name": "numberOfCoupons",
          "type": "uint256"
        },
        {
          "indexed": true,
          "internalType": "uint256",
          "name": "projectId",
          "type": "uint256"
        },
        {
          "indexed": false,
          "internalType": "address",
          "name": "receiver",
          "type": "address"
        },
        {
          "indexed": false,
          "internalType": "uint256",
          "name": "value",
          "type": "uint256"
        }
      ],
      "name": "CouponsCreated",
      "type": "event"
    },
    {
      "anonymous": false,
      "inputs": [
        {
          "indexed": true,
          "internalType": "address",
          "name": "owner",
          "type": "address"
        },
        {
          "indexed": false,
          "internalType": "uint256",
          "name": "amount",
          "type": "uint256"
        }
      ],
      "name": "EtherWithdrawn",
      "type": "event"
    },
    {
      "anonymous": false,
      "inputs": [
        {
          "indexed": false,
          "internalType": "uint256",
          "name": "_tokenId",
          "type": "uint256"
        }
      ],
      "name": "MetadataUpdate",
      "type": "event"
    },
    {
      "anonymous": false,
      "inputs": [
        {
          "indexed": true,
          "internalType": "address",
          "name": "previousOwner",
          "type": "address"
        },
        {
          "indexed": true,
          "internalType": "address",
          "name": "newOwner",
          "type": "address"
        }
      ],
      "name": "OwnershipTransferred",
      "type": "event"
    },
    {
      "anonymous": false,
      "inputs": [
        {
          "indexed": true,
          "internalType": "address",
          "name": "from",
          "type": "address"
        },
        {
          "indexed": true,
          "internalType": "address",
          "name": "to",
          "type": "address"
        },
        {
          "indexed": true,
          "internalType": "uint256",
          "name": "tokenId",
          "type": "uint256"
        }
      ],
      "name": "Transfer",
      "type": "event"
    },
    {
      "inputs": [
        {
          "internalType": "address",
          "name": "to",
          "type": "address"
        },
        {
          "internalType": "uint256",
          "name": "tokenId",
          "type": "uint256"
        }
      ],
      "name": "approve",
      "outputs": [],
      "stateMutability": "nonpayable",
      "type": "function"
    },
    {
      "inputs": [
        {
          "internalType": "address",
          "name": "owner",
          "type": "address"
        }
      ],
      "name": "balanceOf",
      "outputs": [
        {
          "internalType": "uint256",
          "name": "",
          "type": "uint256"
        }
      ],
      "stateMutability": "view",
      "type": "function"
    },
    {
      "inputs": [
        {
          "internalType": "uint256",
          "name": "value",
          "type": "uint256"
        },
        {
          "internalType": "uint256",
          "name": "projectId",
          "type": "uint256"
        },
        {
          "internalType": "address",
          "name": "receiver",
          "type": "address"
        },
        {
          "internalType": "uint256",
          "name": "numberOfCoupons",
          "type": "uint256"
        }
      ],
      "name": "createCoupons",
      "outputs": [
        {
          "internalType": "uint256[]",
          "name": "",
          "type": "uint256[]"
        }
      ],
      "stateMutability": "nonpayable",
      "type": "function"
    },
    {
      "inputs": [
        {
          "internalType": "uint256",
          "name": "tokenId",
          "type": "uint256"
        }
      ],
      "name": "getApproved",
      "outputs": [
        {
          "internalType": "address",
          "name": "",
          "type": "address"
        }
      ],
      "stateMutability": "view",
      "type": "function"
    },
    {
      "inputs": [
        {
          "internalType": "uint256",
          "name": "tokenId",
          "type": "uint256"
        },
        {
          "internalType": "uint256",
          "name": "projectId",
          "type": "uint256"
        }
      ],
      "name": "getCouponValue",
      "outputs": [
        {
          "internalType": "uint256",
          "name": "",
          "type": "uint256"
        }
      ],
      "stateMutability": "view",
      "type": "function"
    },
    {
      "inputs": [
        {
          "internalType": "uint256",
          "name": "projectId",
          "type": "uint256"
        }
      ],
      "name": "getCouponsByProject",
      "outputs": [
        {
          "internalType": "uint256[]",
          "name": "",
          "type": "uint256[]"
        },
        {
          "internalType": "uint256[]",
          "name": "",
          "type": "uint256[]"
        }
      ],
      "stateMutability": "view",
      "type": "function"
    },
    {
      "inputs": [
        {
          "internalType": "address",
          "name": "owner",
          "type": "address"
        },
        {
          "internalType": "address",
          "name": "operator",
          "type": "address"
        }
      ],
      "name": "isApprovedForAll",
      "outputs": [
        {
          "internalType": "bool",
          "name": "",
          "type": "bool"
        }
      ],
      "stateMutability": "view",
      "type": "function"
    },
    {
      "inputs": [],
      "name": "name",
      "outputs": [
        {
          "internalType": "string",
          "name": "",
          "type": "string"
        }
      ],
      "stateMutability": "view",
      "type": "function"
    },
    {
      "inputs": [],
      "name": "nextTokenId",
      "outputs": [
        {
          "internalType": "uint256",
          "name": "",
          "type": "uint256"
        }
      ],
      "stateMutability": "view",
      "type": "function"
    },
    {
      "inputs": [],
      "name": "owner",
      "outputs": [
        {
          "internalType": "address",
          "name": "",
          "type": "address"
        }
      ],
      "stateMutability": "view",
      "type": "function"
    },
    {
      "inputs": [
        {
          "internalType": "uint256",
          "name": "tokenId",
          "type": "uint256"
        }
      ],
      "name": "ownerOf",
      "outputs": [
        {
          "internalType": "address",
          "name": "",
          "type": "address"
        }
      ],
      "stateMutability": "view",
      "type": "function"
    },
    {
      "inputs": [
        {
          "internalType": "uint256",
          "name": "tokenId",
          "type": "uint256"
        },
        {
          "internalType": "uint256",
          "name": "projectId",
          "type": "uint256"
        }
      ],
      "name": "redeemCoupon",
      "outputs": [],
      "stateMutability": "nonpayable",
      "type": "function"
    },
    {
      "inputs": [],
      "name": "renounceOwnership",
      "outputs": [],
      "stateMutability": "nonpayable",
      "type": "function"
    },
    {
      "inputs": [
        {
          "internalType": "address",
          "name": "from",
          "type": "address"
        },
        {
          "internalType": "address",
          "name": "to",
          "type": "address"
        },
        {
          "internalType": "uint256",
          "name": "tokenId",
          "type": "uint256"
        }
      ],
      "name": "safeTransferFrom",
      "outputs": [],
      "stateMutability": "nonpayable",
      "type": "function"
    },
    {
      "inputs": [
        {
          "internalType": "address",
          "name": "from",
          "type": "address"
        },
        {
          "internalType": "address",
          "name": "to",
          "type": "address"
        },
        {
          "internalType": "uint256",
          "name": "tokenId",
          "type": "uint256"
        },
        {
          "internalType": "bytes",
          "name": "data",
          "type": "bytes"
        }
      ],
      "name": "safeTransferFrom",
      "outputs": [],
      "stateMutability": "nonpayable",
      "type": "function"
    },
    {
      "inputs": [
        {
          "internalType": "address",
          "name": "operator",
          "type": "address"
        },
        {
          "internalType": "bool",
          "name": "approved",
          "type": "bool"
        }
      ],
      "name": "setApprovalForAll",
      "outputs": [],
      "stateMutability": "nonpayable",
      "type": "function"
    },
    {
      "inputs": [
        {
          "internalType": "bytes4",
          "name": "interfaceId",
          "type": "bytes4"
        }
      ],
      "name": "supportsInterface",
      "outputs": [
        {
          "internalType": "bool",
          "name": "",
          "type": "bool"
        }
      ],
      "stateMutability": "view",
      "type": "function"
    },
    {
      "inputs": [],
      "name": "symbol",
      "outputs": [
        {
          "internalType": "string",
          "name": "",
          "type": "string"
        }
      ],
      "stateMutability": "view",
      "type": "function"
    },
    {
      "inputs": [
        {
          "internalType": "uint256",
          "name": "tokenId",
          "type": "uint256"
        }
      ],
      "name": "tokenURI",
      "outputs": [
        {
          "internalType": "string",
          "name": "",
          "type": "string"
        }
      ],
      "stateMutability": "view",
      "type": "function"
    },
    {
      "inputs": [
        {
          "internalType": "address",
          "name": "from",
          "type": "address"
        },
        {
          "internalType": "address",
          "name": "to",
          "type": "address"
        },
        {
          "internalType": "uint256",
          "name": "tokenId",
          "type": "uint256"
        }
      ],
      "name": "transferFrom",
      "outputs": [],
      "stateMutability": "nonpayable",
      "type": "function"
    },
    {
      "inputs": [
        {
          "internalType": "address",
          "name": "newOwner",
          "type": "address"
        }
      ],
      "name": "transferOwnership",
      "outputs": [],
      "stateMutability": "nonpayable",
      "type": "function"
    },
    {
      "inputs": [],
      "name": "withdrawEther",
      "outputs": [],
      "stateMutability": "nonpayable",
      "type": "function"
    },
    {
      "stateMutability": "payable",
      "type": "receive"
    }
  ],
  "bytecode": "0x608060405234801561001057600080fd5b50604051611e82380380611e8283398101604081905261002f91610126565b806040518060400160405280600f81526020016e2237b730ba34b7b71021b7bab837b760891b8152506040518060400160405280600681526020016521a7aaa827a760d11b815250816000908161008691906101f5565b50600161009382826101f5565b5050506001600160a01b0381166100c457604051631e4fbdf760e01b81526000600482015260240160405180910390fd5b6100cd816100d4565b50506102b3565b600780546001600160a01b038381166001600160a01b0319831681179093556040519116919082907f8be0079c531659141344cd1fd0a4f28419497f9722a3daafe3b4186f6b6457e090600090a35050565b60006020828403121561013857600080fd5b81516001600160a01b038116811461014f57600080fd5b9392505050565b634e487b7160e01b600052604160045260246000fd5b600181811c9082168061018057607f821691505b6020821081036101a057634e487b7160e01b600052602260045260246000fd5b50919050565b601f8211156101f057806000526020600020601f840160051c810160208510156101cd5750805b601f840160051c820191505b818110156101ed57600081556001016101d9565b50505b505050565b81516001600160401b0381111561020e5761020e610156565b6102228161021c845461016c565b846101a6565b6020601f821160018114610256576000831561023e5750848201515b600019600385901b1c1916600184901b1784556101ed565b600084815260208120601f198516915b828110156102865787850151825560209485019460019092019101610266565b50848210156102a45786840151600019600387901b60f8161c191681555b50505050600190811b01905550565b611bc0806102c26000396000f3fe6080604052600436106101395760003560e01c80637362377b116100ab578063a22cb4651161006f578063a22cb46514610364578063a73d8abe14610384578063b88d4fde146103b2578063c87b56dd146103d2578063e985e9c5146103f2578063f2fde38b1461041257600080fd5b80637362377b146102e657806375794a3c146102fb5780637749c1a7146103115780638da5cb5b1461033157806395d89b411461034f57600080fd5b806323b872dd116100fd57806323b872dd1461022357806342842e0e146102435780636352211e146102635780636882514c1461028357806370a08231146102a3578063715018a6146102d157600080fd5b806301ffc9a71461014557806306fdde031461017a578063081812fc1461019c578063095ea7b3146101d45780630ee4e2f2146101f657600080fd5b3661014057005b600080fd5b34801561015157600080fd5b506101656101603660046116ef565b610432565b60405190151581526020015b60405180910390f35b34801561018657600080fd5b5061018f61045d565b604051610171919061175c565b3480156101a857600080fd5b506101bc6101b736600461176f565b6104ef565b6040516001600160a01b039091168152602001610171565b3480156101e057600080fd5b506101f46101ef3660046117a4565b610518565b005b34801561020257600080fd5b506102166102113660046117ce565b610527565b6040516101719190611847565b34801561022f57600080fd5b506101f461023e36600461185a565b61066f565b34801561024f57600080fd5b506101f461025e36600461185a565b6106ff565b34801561026f57600080fd5b506101bc61027e36600461176f565b61071f565b34801561028f57600080fd5b506101f461029e366004611897565b61072a565b3480156102af57600080fd5b506102c36102be3660046118b9565b6108a6565b604051908152602001610171565b3480156102dd57600080fd5b506101f46108ee565b3480156102f257600080fd5b506101f4610902565b34801561030757600080fd5b506102c360085481565b34801561031d57600080fd5b506102c361032c366004611897565b610a2f565b34801561033d57600080fd5b506007546001600160a01b03166101bc565b34801561035b57600080fd5b5061018f610a85565b34801561037057600080fd5b506101f461037f3660046118d4565b610a94565b34801561039057600080fd5b506103a461039f36600461176f565b610a9f565b604051610171929190611910565b3480156103be57600080fd5b506101f46103cd366004611954565b610ced565b3480156103de57600080fd5b5061018f6103ed36600461176f565b610d05565b3480156103fe57600080fd5b5061016561040d366004611a38565b610e16565b34801561041e57600080fd5b506101f461042d3660046118b9565b610e44565b60006001600160e01b03198216632483248360e11b1480610457575061045782610e82565b92915050565b60606000805461046c90611a6b565b80601f016020809104026020016040519081016040528092919081815260200182805461049890611a6b565b80156104e55780601f106104ba576101008083540402835291602001916104e5565b820191906000526020600020905b8154815290600101906020018083116104c857829003601f168201915b5050505050905090565b60006104fa82610ed2565b506000828152600460205260409020546001600160a01b0316610457565b610523828233610f0b565b5050565b6060610531610f18565b600061053d8684611abb565b90508047101561056057604051637031527760e01b815260040160405180910390fd5b60008367ffffffffffffffff81111561057b5761057b61193e565b6040519080825280602002602001820160405280156105a4578160200160208202803683370190505b50905060005b848110156106195760088054600091826105c383611ad2565b9190505590506105d38782610f45565b600088815260096020908152604080832084845290915290208990558251819084908490811061060557610605611aeb565b6020908102919091010152506001016105aa565b50604080518581526001600160a01b038716602082015290810188905286907f0e8cf018aa56b947385d5449e04d0e4bf3419a784010d6c369693a5d575ac2d59060600160405180910390a29695505050505050565b6001600160a01b03821661069e57604051633250574960e11b8152600060048201526024015b60405180910390fd5b60006106ab838333610f5f565b9050836001600160a01b0316816001600160a01b0316146106f9576040516364283d7b60e01b81526001600160a01b0380861660048301526024820184905282166044820152606401610695565b50505050565b61071a83838360405180602001604052806000815250610ced565b505050565b600061045782610ed2565b600081815260096020908152604080832085845290915281205490036107635760405163a2cdac2560e01b815260040160405180910390fd5b3361076d8361071f565b6001600160a01b031614610794576040516335811ed160e01b815260040160405180910390fd5b6000818152600960209081526040808320858452909152902054478111156107cf57604051637031527760e01b815260040160405180910390fd5b60008281526009602090815260408083208684529091528120556107f283611058565b604051600090339083908381818185875af1925050503d8060008114610834576040519150601f19603f3d011682016040523d82523d6000602084013e610839565b606091505b505090508061085b5760405163bfa871c560e01b815260040160405180910390fd5b336001600160a01b031683857f6d08c128975ce7c459f3b6f71a86206459400e3867ef0d4239fe73096bd5de188560405161089891815260200190565b60405180910390a450505050565b60006001600160a01b0382166108d2576040516322718ad960e21b815260006004820152602401610695565b506001600160a01b031660009081526003602052604090205490565b6108f6610f18565b6109006000611093565b565b61090a610f18565b478061092957604051637031527760e01b815260040160405180910390fd5b600061093d6007546001600160a01b031690565b6001600160a01b03168260405160006040518083038185875af1925050503d8060008114610987576040519150601f19603f3d011682016040523d82523d6000602084013e61098c565b606091505b50509050806109dd5760405162461bcd60e51b815260206004820152601760248201527f4574686572207769746864726177616c206661696c65640000000000000000006044820152606401610695565b6007546001600160a01b03166001600160a01b03167f06097061aeda806b5e9cb4133d9899f332ff0913956567fc0f7ea15e3d19947c83604051610a2391815260200190565b60405180910390a25050565b60008181526009602090815260408083208584529091528120548103610a685760405163a2cdac2560e01b815260040160405180910390fd5b506000908152600960209081526040808320938352929052205490565b60606001805461046c90611a6b565b6105233383836110e5565b60608060008060085467ffffffffffffffff811115610ac057610ac061193e565b604051908082528060200260200182016040528015610ae9578160200160208202803683370190505b509050600060085467ffffffffffffffff811115610b0957610b0961193e565b604051908082528060200260200182016040528015610b32578160200160208202803683370190505b50905060005b600854811015610bce57600087815260096020908152604080832084845290915290205415610bc65780838581518110610b7457610b74611aeb565b602090810291909101810191909152600088815260098252604080822084835290925220548251839086908110610bad57610bad611aeb565b602090810291909101015283610bc281611ad2565b9450505b600101610b38565b5060008367ffffffffffffffff811115610bea57610bea61193e565b604051908082528060200260200182016040528015610c13578160200160208202803683370190505b50905060008467ffffffffffffffff811115610c3157610c3161193e565b604051908082528060200260200182016040528015610c5a578160200160208202803683370190505b50905060005b85811015610cdf57848181518110610c7a57610c7a611aeb565b6020026020010151838281518110610c9457610c94611aeb565b602002602001018181525050838181518110610cb257610cb2611aeb565b6020026020010151828281518110610ccc57610ccc611aeb565b6020908102919091010152600101610c60565b509097909650945050505050565b610cf884848461066f565b6106f93385858585611184565b6060610d1082610ed2565b5060008281526006602052604081208054610d2a90611a6b565b80601f0160208091040260200160405190810160405280929190818152602001828054610d5690611a6b565b8015610da35780601f10610d7857610100808354040283529160200191610da3565b820191906000526020600020905b815481529060010190602001808311610d8657829003601f168201915b505050505090506000610dc160408051602081019091526000815290565b90508051600003610dd3575092915050565b815115610e05578082604051602001610ded929190611b01565b60405160208183030381529060405292505050919050565b610e0e846112af565b949350505050565b6001600160a01b03918216600090815260056020908152604080832093909416825291909152205460ff1690565b610e4c610f18565b6001600160a01b038116610e7657604051631e4fbdf760e01b815260006004820152602401610695565b610e7f81611093565b50565b60006001600160e01b031982166380ac58cd60e01b1480610eb357506001600160e01b03198216635b5e139f60e01b145b8061045757506301ffc9a760e01b6001600160e01b0319831614610457565b6000818152600260205260408120546001600160a01b03168061045757604051637e27328960e01b815260048101849052602401610695565b61071a8383836001611324565b6007546001600160a01b031633146109005760405163118cdaa760e01b8152336004820152602401610695565b61052382826040518060200160405280600081525061142a565b6000828152600260205260408120546001600160a01b0390811690831615610f8c57610f8c818486611442565b6001600160a01b03811615610fca57610fa9600085600080611324565b6001600160a01b038116600090815260036020526040902080546000190190555b6001600160a01b03851615610ff9576001600160a01b0385166000908152600360205260409020805460010190555b60008481526002602052604080822080546001600160a01b0319166001600160a01b0389811691821790925591518793918516917fddf252ad1be2c89b69c2b068fc378daa952ba7f163c4a11628f55a4df523b3ef91a4949350505050565b60006110676000836000610f5f565b90506001600160a01b03811661052357604051637e27328960e01b815260048101839052602401610695565b600780546001600160a01b038381166001600160a01b0319831681179093556040519116919082907f8be0079c531659141344cd1fd0a4f28419497f9722a3daafe3b4186f6b6457e090600090a35050565b6001600160a01b03821661111757604051630b61174360e31b81526001600160a01b0383166004820152602401610695565b6001600160a01b03838116600081815260056020908152604080832094871680845294825291829020805460ff191686151590811790915591519182527f17307eab39ab6107e8899845ad3d59bd9653f200f220920489ca2b5937696c31910160405180910390a3505050565b6001600160a01b0383163b156112a857604051630a85bd0160e11b81526001600160a01b0384169063150b7a02906111c6908890889087908790600401611b30565b6020604051808303816000875af1925050508015611201575060408051601f3d908101601f191682019092526111fe91810190611b6d565b60015b61126a573d80801561122f576040519150601f19603f3d011682016040523d82523d6000602084013e611234565b606091505b50805160000361126257604051633250574960e11b81526001600160a01b0385166004820152602401610695565b805181602001fd5b6001600160e01b03198116630a85bd0160e11b146112a657604051633250574960e11b81526001600160a01b0385166004820152602401610695565b505b5050505050565b60606112ba82610ed2565b5060006112d260408051602081019091526000815290565b905060008151116112f2576040518060200160405280600081525061131d565b806112fc846114a6565b60405160200161130d929190611b01565b6040516020818303038152906040525b9392505050565b808061133857506001600160a01b03821615155b156113fa57600061134884610ed2565b90506001600160a01b038316158015906113745750826001600160a01b0316816001600160a01b031614155b801561138757506113858184610e16565b155b156113b05760405163a9fbf51f60e01b81526001600160a01b0384166004820152602401610695565b81156113f85783856001600160a01b0316826001600160a01b03167f8c5be1e5ebec7d5bd14f71427d1e84f3dd0314c0f7b2291e5b200ac8c7c3b92560405160405180910390a45b505b5050600090815260046020526040902080546001600160a01b0319166001600160a01b0392909216919091179055565b6114348383611539565b61071a336000858585611184565b61144d83838361159e565b61071a576001600160a01b03831661147b57604051637e27328960e01b815260048101829052602401610695565b60405163177e802f60e01b81526001600160a01b038316600482015260248101829052604401610695565b606060006114b383611601565b600101905060008167ffffffffffffffff8111156114d3576114d361193e565b6040519080825280601f01601f1916602001820160405280156114fd576020820181803683370190505b5090508181016020015b600019016f181899199a1a9b1b9c1cb0b131b232b360811b600a86061a8153600a850494508461150757509392505050565b6001600160a01b03821661156357604051633250574960e11b815260006004820152602401610695565b600061157183836000610f5f565b90506001600160a01b0381161561071a576040516339e3563760e11b815260006004820152602401610695565b60006001600160a01b03831615801590610e0e5750826001600160a01b0316846001600160a01b031614806115d857506115d88484610e16565b80610e0e5750506000908152600460205260409020546001600160a01b03908116911614919050565b60008072184f03e93ff9f4daa797ed6e38ed64bf6a1f0160401b83106116405772184f03e93ff9f4daa797ed6e38ed64bf6a1f0160401b830492506040015b6d04ee2d6d415b85acef8100000000831061166c576d04ee2d6d415b85acef8100000000830492506020015b662386f26fc10000831061168a57662386f26fc10000830492506010015b6305f5e10083106116a2576305f5e100830492506008015b61271083106116b657612710830492506004015b606483106116c8576064830492506002015b600a83106104575760010192915050565b6001600160e01b031981168114610e7f57600080fd5b60006020828403121561170157600080fd5b813561131d816116d9565b60005b8381101561172757818101518382015260200161170f565b50506000910152565b6000815180845261174881602086016020860161170c565b601f01601f19169290920160200192915050565b60208152600061131d6020830184611730565b60006020828403121561178157600080fd5b5035919050565b80356001600160a01b038116811461179f57600080fd5b919050565b600080604083850312156117b757600080fd5b6117c083611788565b946020939093013593505050565b600080600080608085870312156117e457600080fd5b84359350602085013592506117fb60408601611788565b9396929550929360600135925050565b600081518084526020840193506020830160005b8281101561183d57815186526020958601959091019060010161181f565b5093949350505050565b60208152600061131d602083018461180b565b60008060006060848603121561186f57600080fd5b61187884611788565b925061188660208501611788565b929592945050506040919091013590565b600080604083850312156118aa57600080fd5b50508035926020909101359150565b6000602082840312156118cb57600080fd5b61131d82611788565b600080604083850312156118e757600080fd5b6118f083611788565b91506020830135801515811461190557600080fd5b809150509250929050565b604081526000611923604083018561180b565b8281036020840152611935818561180b565b95945050505050565b634e487b7160e01b600052604160045260246000fd5b6000806000806080858703121561196a57600080fd5b61197385611788565b935061198160208601611788565b925060408501359150606085013567ffffffffffffffff8111156119a457600080fd5b8501601f810187136119b557600080fd5b803567ffffffffffffffff8111156119cf576119cf61193e565b604051601f8201601f19908116603f0116810167ffffffffffffffff811182821017156119fe576119fe61193e565b604052818152828201602001891015611a1657600080fd5b8160208401602083013760006020838301015280935050505092959194509250565b60008060408385031215611a4b57600080fd5b611a5483611788565b9150611a6260208401611788565b90509250929050565b600181811c90821680611a7f57607f821691505b602082108103611a9f57634e487b7160e01b600052602260045260246000fd5b50919050565b634e487b7160e01b600052601160045260246000fd5b808202811582820484141761045757610457611aa5565b600060018201611ae457611ae4611aa5565b5060010190565b634e487b7160e01b600052603260045260246000fd5b60008351611b1381846020880161170c565b835190830190611b2781836020880161170c565b01949350505050565b6001600160a01b0385811682528416602082015260408101839052608060608201819052600090611b6390830184611730565b9695505050505050565b600060208284031215611b7f57600080fd5b815161131d816116d956fea26469706673582212209f92b08e3ce35b5d89ffb7db2b0b65043834ea042781fa66096cf48b031c92d164736f6c634300081c0033",
  "linkReferences": {},
  "deployedLinkReferences": {}
}