{
  "_format": "hh-sol-artifact-1",
  "contractName": "VeraToken",
  "sourceName": "contracts/VeraToken.sol",
  "abi": [
    {
      "inputs": [
        {
          "internalType": "address",
          "name": "initialOwner",
          "type": "address"
        }
      ],
      "stateMutability": "nonpayable",
      "type": "constructor"
    },
    {
      "inputs": [
        {
          "internalType": "address",
          "name": "spender",
          "type": "address"
        },
        {
          "internalType": "uint256",
          "name": "allowance",
          "type": "uint256"
        },
        {
          "internalType": "uint256",
          "name": "needed",
          "type": "uint256"
        }
      ],
      "name": "ERC20InsufficientAllowance",
      "type": "error"
    },
    {
      "inputs": [
        {
          "internalType": "address",
          "name": "sender",
          "type": "address"
        },
        {
          "internalType": "uint256",
          "name": "balance",
          "type": "uint256"
        },
        {
          "internalType": "uint256",
          "name": "needed",
          "type": "uint256"
        }
      ],
      "name": "ERC20InsufficientBalance",
      "type": "error"
    },
    {
      "inputs": [
        {
          "internalType": "address",
          "name": "approver",
          "type": "address"
        }
      ],
      "name": "ERC20InvalidApprover",
      "type": "error"
    },
    {
      "inputs": [
        {
          "internalType": "address",
          "name": "receiver",
          "type": "address"
        }
      ],
      "name": "ERC20InvalidReceiver",
      "type": "error"
    },
    {
      "inputs": [
        {
          "internalType": "address",
          "name": "sender",
          "type": "address"
        }
      ],
      "name": "ERC20InvalidSender",
      "type": "error"
    },
    {
      "inputs": [
        {
          "internalType": "address",
          "name": "spender",
          "type": "address"
        }
      ],
      "name": "ERC20InvalidSpender",
      "type": "error"
    },
    {
      "inputs": [
        {
          "internalType": "address",
          "name": "owner",
          "type": "address"
        }
      ],
      "name": "OwnableInvalidOwner",
      "type": "error"
    },
    {
      "inputs": [
        {
          "internalType": "address",
          "name": "account",
          "type": "address"
        }
      ],
      "name": "OwnableUnauthorizedAccount",
      "type": "error"
    },
    {
      "anonymous": false,
      "inputs": [
        {
          "indexed": true,
          "internalType": "address",
          "name": "owner",
          "type": "address"
        },
        {
          "indexed": true,
          "internalType": "address",
          "name": "spender",
          "type": "address"
        },
        {
          "indexed": false,
          "internalType": "uint256",
          "name": "value",
          "type": "uint256"
        }
      ],
      "name": "Approval",
      "type": "event"
    },
    {
      "anonymous": false,
      "inputs": [
        {
          "indexed": true,
          "internalType": "address",
          "name": "previousOwner",
          "type": "address"
        },
        {
          "indexed": true,
          "internalType": "address",
          "name": "newOwner",
          "type": "address"
        }
      ],
      "name": "OwnershipTransferred",
      "type": "event"
    },
    {
      "anonymous": false,
      "inputs": [
        {
          "indexed": true,
          "internalType": "address",
          "name": "from",
          "type": "address"
        },
        {
          "indexed": true,
          "internalType": "address",
          "name": "to",
          "type": "address"
        },
        {
          "indexed": false,
          "internalType": "uint256",
          "name": "value",
          "type": "uint256"
        }
      ],
      "name": "Transfer",
      "type": "event"
    },
    {
      "inputs": [
        {
          "internalType": "address",
          "name": "owner",
          "type": "address"
        },
        {
          "internalType": "address",
          "name": "spender",
          "type": "address"
        }
      ],
      "name": "allowance",
      "outputs": [
        {
          "internalType": "uint256",
          "name": "",
          "type": "uint256"
        }
      ],
      "stateMutability": "view",
      "type": "function"
    },
    {
      "inputs": [
        {
          "internalType": "address",
          "name": "spender",
          "type": "address"
        },
        {
          "internalType": "uint256",
          "name": "value",
          "type": "uint256"
        }
      ],
      "name": "approve",
      "outputs": [
        {
          "internalType": "bool",
          "name": "",
          "type": "bool"
        }
      ],
      "stateMutability": "nonpayable",
      "type": "function"
    },
    {
      "inputs": [
        {
          "internalType": "address",
          "name": "account",
          "type": "address"
        }
      ],
      "name": "balanceOf",
      "outputs": [
        {
          "internalType": "uint256",
          "name": "",
          "type": "uint256"
        }
      ],
      "stateMutability": "view",
      "type": "function"
    },
    {
      "inputs": [],
      "name": "decimals",
      "outputs": [
        {
          "internalType": "uint8",
          "name": "",
          "type": "uint8"
        }
      ],
      "stateMutability": "view",
      "type": "function"
    },
    {
      "inputs": [
        {
          "internalType": "address",
          "name": "to",
          "type": "address"
        },
        {
          "internalType": "uint256",
          "name": "amount",
          "type": "uint256"
        }
      ],
      "name": "mint",
      "outputs": [],
      "stateMutability": "nonpayable",
      "type": "function"
    },
    {
      "inputs": [],
      "name": "name",
      "outputs": [
        {
          "internalType": "string",
          "name": "",
          "type": "string"
        }
      ],
      "stateMutability": "view",
      "type": "function"
    },
    {
      "inputs": [],
      "name": "owner",
      "outputs": [
        {
          "internalType": "address",
          "name": "",
          "type": "address"
        }
      ],
      "stateMutability": "view",
      "type": "function"
    },
    {
      "inputs": [],
      "name": "renounceOwnership",
      "outputs": [],
      "stateMutability": "nonpayable",
      "type": "function"
    },
    {
      "inputs": [
        {
          "internalType": "address",
          "name": "to",
          "type": "address"
        },
        {
          "internalType": "uint256",
          "name": "amount",
          "type": "uint256"
        }
      ],
      "name": "sendTokens",
      "outputs": [],
      "stateMutability": "nonpayable",
      "type": "function"
    },
    {
      "inputs": [],
      "name": "symbol",
      "outputs": [
        {
          "internalType": "string",
          "name": "",
          "type": "string"
        }
      ],
      "stateMutability": "view",
      "type": "function"
    },
    {
      "inputs": [],
      "name": "totalSupply",
      "outputs": [
        {
          "internalType": "uint256",
          "name": "",
          "type": "uint256"
        }
      ],
      "stateMutability": "view",
      "type": "function"
    },
    {
      "inputs": [
        {
          "internalType": "address",
          "name": "to",
          "type": "address"
        },
        {
          "internalType": "uint256",
          "name": "value",
          "type": "uint256"
        }
      ],
      "name": "transfer",
      "outputs": [
        {
          "internalType": "bool",
          "name": "",
          "type": "bool"
        }
      ],
      "stateMutability": "nonpayable",
      "type": "function"
    },
    {
      "inputs": [
        {
          "internalType": "address",
          "name": "from",
          "type": "address"
        },
        {
          "internalType": "address",
          "name": "to",
          "type": "address"
        },
        {
          "internalType": "uint256",
          "name": "value",
          "type": "uint256"
        }
      ],
      "name": "transferFrom",
      "outputs": [
        {
          "internalType": "bool",
          "name": "",
          "type": "bool"
        }
      ],
      "stateMutability": "nonpayable",
      "type": "function"
    },
    {
      "inputs": [
        {
          "internalType": "address",
          "name": "newOwner",
          "type": "address"
        }
      ],
      "name": "transferOwnership",
      "outputs": [],
      "stateMutability": "nonpayable",
      "type": "function"
    }
  ],
  "bytecode": "0x608060405234801561001057600080fd5b50604051610c80380380610c8083398101604081905261002f9161011e565b80604051806040016040528060098152602001682b32b930aa37b5b2b760b91b815250604051806040016040528060048152602001635645524160e01b815250816003908161007e91906101ed565b50600461008b82826101ed565b5050506001600160a01b0381166100bc57604051631e4fbdf760e01b81526000600482015260240160405180910390fd5b6100c5816100cc565b50506102ab565b600580546001600160a01b038381166001600160a01b0319831681179093556040519116919082907f8be0079c531659141344cd1fd0a4f28419497f9722a3daafe3b4186f6b6457e090600090a35050565b60006020828403121561013057600080fd5b81516001600160a01b038116811461014757600080fd5b9392505050565b634e487b7160e01b600052604160045260246000fd5b600181811c9082168061017857607f821691505b60208210810361019857634e487b7160e01b600052602260045260246000fd5b50919050565b601f8211156101e857806000526020600020601f840160051c810160208510156101c55750805b601f840160051c820191505b818110156101e557600081556001016101d1565b50505b505050565b81516001600160401b038111156102065761020661014e565b61021a816102148454610164565b8461019e565b6020601f82116001811461024e57600083156102365750848201515b600019600385901b1c1916600184901b1784556101e5565b600084815260208120601f198516915b8281101561027e578785015182556020948501946001909201910161025e565b508482101561029c5786840151600019600387901b60f8161c191681555b50505050600190811b01905550565b6109c6806102ba6000396000f3fe608060405234801561001057600080fd5b50600436106100ea5760003560e01c806370a082311161008c57806395d89b411161006657806395d89b41146101d8578063a9059cbb146101e0578063dd62ed3e146101f3578063f2fde38b1461022c57600080fd5b806370a082311461018c578063715018a6146101b55780638da5cb5b146101bd57600080fd5b806318160ddd116100c857806318160ddd1461014557806323b872dd14610157578063313ce5671461016a57806340c10f191461017957600080fd5b806305ab421d146100ef57806306fdde0314610104578063095ea7b314610122575b600080fd5b6101026100fd366004610812565b61023f565b005b61010c610301565b604051610119919061083c565b60405180910390f35b610135610130366004610812565b610393565b6040519015158152602001610119565b6002545b604051908152602001610119565b61013561016536600461088a565b6103ad565b60405160128152602001610119565b610102610187366004610812565b6103d1565b61014961019a3660046108c7565b6001600160a01b031660009081526020819052604090205490565b6101026103e3565b6005546040516001600160a01b039091168152602001610119565b61010c6103f7565b6101356101ee366004610812565b610406565b6101496102013660046108e9565b6001600160a01b03918216600090815260016020908152604080832093909416825291909152205490565b61010261023a3660046108c7565b610414565b610247610452565b6040516370a0823160e01b8152306004820181905282916370a0823190602401602060405180830381865afa158015610284573d6000803e3d6000fd5b505050506040513d601f19601f820116820180604052508101906102a8919061091c565b10156102f25760405162461bcd60e51b8152602060048201526014602482015273496e73756666696369656e742062616c616e636560601b60448201526064015b60405180910390fd5b6102fd30838361047f565b5050565b60606003805461031090610935565b80601f016020809104026020016040519081016040528092919081815260200182805461033c90610935565b80156103895780601f1061035e57610100808354040283529160200191610389565b820191906000526020600020905b81548152906001019060200180831161036c57829003601f168201915b5050505050905090565b6000336103a18185856104e3565b60019150505b92915050565b6000336103bb8582856104f0565b6103c685858561047f565b506001949350505050565b6103d9610452565b6102fd828261056f565b6103eb610452565b6103f560006105a5565b565b60606004805461031090610935565b6000336103a181858561047f565b61041c610452565b6001600160a01b03811661044657604051631e4fbdf760e01b8152600060048201526024016102e9565b61044f816105a5565b50565b6005546001600160a01b031633146103f55760405163118cdaa760e01b81523360048201526024016102e9565b6001600160a01b0383166104a957604051634b637e8f60e11b8152600060048201526024016102e9565b6001600160a01b0382166104d35760405163ec442f0560e01b8152600060048201526024016102e9565b6104de8383836105f7565b505050565b6104de8383836001610721565b6001600160a01b03838116600090815260016020908152604080832093861683529290522054600019811015610569578181101561055a57604051637dc7a0d960e11b81526001600160a01b038416600482015260248101829052604481018390526064016102e9565b61056984848484036000610721565b50505050565b6001600160a01b0382166105995760405163ec442f0560e01b8152600060048201526024016102e9565b6102fd600083836105f7565b600580546001600160a01b038381166001600160a01b0319831681179093556040519116919082907f8be0079c531659141344cd1fd0a4f28419497f9722a3daafe3b4186f6b6457e090600090a35050565b6001600160a01b038316610622578060026000828254610617919061096f565b909155506106949050565b6001600160a01b038316600090815260208190526040902054818110156106755760405163391434e360e21b81526001600160a01b038516600482015260248101829052604481018390526064016102e9565b6001600160a01b03841660009081526020819052604090209082900390555b6001600160a01b0382166106b0576002805482900390556106cf565b6001600160a01b03821660009081526020819052604090208054820190555b816001600160a01b0316836001600160a01b03167fddf252ad1be2c89b69c2b068fc378daa952ba7f163c4a11628f55a4df523b3ef8360405161071491815260200190565b60405180910390a3505050565b6001600160a01b03841661074b5760405163e602df0560e01b8152600060048201526024016102e9565b6001600160a01b03831661077557604051634a1406b160e11b8152600060048201526024016102e9565b6001600160a01b038085166000908152600160209081526040808320938716835292905220829055801561056957826001600160a01b0316846001600160a01b03167f8c5be1e5ebec7d5bd14f71427d1e84f3dd0314c0f7b2291e5b200ac8c7c3b925846040516107e891815260200190565b60405180910390a350505050565b80356001600160a01b038116811461080d57600080fd5b919050565b6000806040838503121561082557600080fd5b61082e836107f6565b946020939093013593505050565b602081526000825180602084015260005b8181101561086a576020818601810151604086840101520161084d565b506000604082850101526040601f19601f83011684010191505092915050565b60008060006060848603121561089f57600080fd5b6108a8846107f6565b92506108b6602085016107f6565b929592945050506040919091013590565b6000602082840312156108d957600080fd5b6108e2826107f6565b9392505050565b600080604083850312156108fc57600080fd5b610905836107f6565b9150610913602084016107f6565b90509250929050565b60006020828403121561092e57600080fd5b5051919050565b600181811c9082168061094957607f821691505b60208210810361096957634e487b7160e01b600052602260045260246000fd5b50919050565b808201808211156103a757634e487b7160e01b600052601160045260246000fdfea2646970667358221220cb59aba774367ad5ca915c99f90c47de4dfe3c9742dd97d68220113497ac92cb64736f6c634300081c0033",
  "linkReferences": {},
  "deployedLinkReferences": {}
}