{
  "_format": "hh-sol-artifact-1",
  "contractName": "Chain4Good",
  "sourceName": "contracts/Chain4Good.sol",
  "abi": [
    {
      "inputs": [
        {
          "internalType": "address",
          "name": "_veraTokenAddress",
          "type": "address"
        },
        {
          "internalType": "address payable",
          "name": "_couponNFT",
          "type": "address"
        },
        {
          "internalType": "uint48",
          "name": "_votingDelay",
          "type": "uint48"
        },
        {
          "internalType": "uint256",
          "name": "_tokenRewardRate",
          "type": "uint256"
        },
        {
          "internalType": "uint256",
          "name": "_quorum",
          "type": "uint256"
        }
      ],
      "stateMutability": "nonpayable",
      "type": "constructor"
    },
    {
      "inputs": [],
      "name": "AlreadyApproved",
      "type": "error"
    },
    {
      "inputs": [
        {
          "internalType": "string",
          "name": "entity",
          "type": "string"
        },
        {
          "internalType": "uint256",
          "name": "id",
          "type": "uint256"
        }
      ],
      "name": "AlreadyExists",
      "type": "error"
    },
    {
      "inputs": [],
      "name": "AlreadyVoted",
      "type": "error"
    },
    {
      "inputs": [
        {
          "internalType": "string",
          "name": "entity",
          "type": "string"
        }
      ],
      "name": "DoesNotExists",
      "type": "error"
    },
    {
      "inputs": [],
      "name": "DonationAfterProjectCreation",
      "type": "error"
    },
    {
      "inputs": [],
      "name": "DonationMustBeGreaterThanZero",
      "type": "error"
    },
    {
      "inputs": [
        {
          "internalType": "uint256",
          "name": "balance",
          "type": "uint256"
        }
      ],
      "name": "InsufficientBalance",
      "type": "error"
    },
    {
      "inputs": [
        {
          "internalType": "address",
          "name": "_address",
          "type": "address"
        }
      ],
      "name": "InvalidAddress",
      "type": "error"
    },
    {
      "inputs": [
        {
          "internalType": "uint256",
          "name": "provided",
          "type": "uint256"
        },
        {
          "internalType": "uint256",
          "name": "min",
          "type": "uint256"
        },
        {
          "internalType": "uint256",
          "name": "max",
          "type": "uint256"
        }
      ],
      "name": "InvalidAmount",
      "type": "error"
    },
    {
      "inputs": [
        {
          "internalType": "uint256",
          "name": "amount",
          "type": "uint256"
        },
        {
          "internalType": "uint256",
          "name": "divisor",
          "type": "uint256"
        }
      ],
      "name": "InvalidDivisibility",
      "type": "error"
    },
    {
      "inputs": [],
      "name": "InvalidOwner",
      "type": "error"
    },
    {
      "inputs": [
        {
          "internalType": "string",
          "name": "parameter",
          "type": "string"
        }
      ],
      "name": "InvalidParameters",
      "type": "error"
    },
    {
      "inputs": [
        {
          "internalType": "uint256",
          "name": "projectId",
          "type": "uint256"
        },
        {
          "internalType": "enum Chain4Good.ProjectStatus",
          "name": "currentStatus",
          "type": "uint8"
        },
        {
          "internalType": "enum Chain4Good.ProjectStatus",
          "name": "requiredStatus",
          "type": "uint8"
        }
      ],
      "name": "InvalidProjectStatus",
      "type": "error"
    },
    {
      "inputs": [],
      "name": "NotEligibleToVote",
      "type": "error"
    },
    {
      "inputs": [],
      "name": "NotValidAddress",
      "type": "error"
    },
    {
      "inputs": [],
      "name": "OutOfBond",
      "type": "error"
    },
    {
      "inputs": [
        {
          "internalType": "address",
          "name": "owner",
          "type": "address"
        }
      ],
      "name": "OwnableInvalidOwner",
      "type": "error"
    },
    {
      "inputs": [
        {
          "internalType": "address",
          "name": "account",
          "type": "address"
        }
      ],
      "name": "OwnableUnauthorizedAccount",
      "type": "error"
    },
    {
      "inputs": [],
      "name": "ReentrancyGuardReentrantCall",
      "type": "error"
    },
    {
      "inputs": [],
      "name": "SendAmountFailed",
      "type": "error"
    },
    {
      "inputs": [
        {
          "internalType": "uint256",
          "name": "projectId",
          "type": "uint256"
        },
        {
          "internalType": "uint256",
          "name": "currentBlock",
          "type": "uint256"
        },
        {
          "internalType": "uint256",
          "name": "endBlock",
          "type": "uint256"
        }
      ],
      "name": "VotingPeriodNotEnded",
      "type": "error"
    },
    {
      "anonymous": false,
      "inputs": [
        {
          "indexed": true,
          "internalType": "address",
          "name": "associationAddress",
          "type": "address"
        }
      ],
      "name": "AssociationApproved",
      "type": "event"
    },
    {
      "anonymous": false,
      "inputs": [
        {
          "indexed": true,
          "internalType": "address",
          "name": "associationAddress",
          "type": "address"
        },
        {
          "indexed": false,
          "internalType": "string",
          "name": "name",
          "type": "string"
        }
      ],
      "name": "AssociationRegistered",
      "type": "event"
    },
    {
      "anonymous": false,
      "inputs": [
        {
          "indexed": true,
          "internalType": "address",
          "name": "associationAddress",
          "type": "address"
        }
      ],
      "name": "AssociationRejected",
      "type": "event"
    },
    {
      "anonymous": false,
      "inputs": [
        {
          "indexed": false,
          "internalType": "uint256",
          "name": "projectId",
          "type": "uint256"
        },
        {
          "indexed": false,
          "internalType": "uint256",
          "name": "numberOfCoupons",
          "type": "uint256"
        }
      ],
      "name": "CouponsCreated",
      "type": "event"
    },
    {
      "anonymous": false,
      "inputs": [
        {
          "indexed": false,
          "internalType": "address",
          "name": "donatorAddress",
          "type": "address"
        }
      ],
      "name": "DonaterRegistered",
      "type": "event"
    },
    {
      "anonymous": false,
      "inputs": [
        {
          "indexed": true,
          "internalType": "address",
          "name": "donor",
          "type": "address"
        },
        {
          "indexed": false,
          "internalType": "uint8",
          "name": "pool",
          "type": "uint8"
        },
        {
          "indexed": false,
          "internalType": "uint256",
          "name": "amount",
          "type": "uint256"
        }
      ],
      "name": "DonationReceived",
      "type": "event"
    },
    {
      "anonymous": false,
      "inputs": [
        {
          "indexed": true,
          "internalType": "address",
          "name": "previousOwner",
          "type": "address"
        },
        {
          "indexed": true,
          "internalType": "address",
          "name": "newOwner",
          "type": "address"
        }
      ],
      "name": "OwnershipTransferred",
      "type": "event"
    },
    {
      "anonymous": false,
      "inputs": [
        {
          "indexed": false,
          "internalType": "uint256",
          "name": "projectId",
          "type": "uint256"
        },
        {
          "indexed": false,
          "internalType": "enum Chain4Good.PoolType",
          "name": "poolType",
          "type": "uint8"
        },
        {
          "indexed": false,
          "internalType": "uint256",
          "name": "amountRequired",
          "type": "uint256"
        }
      ],
      "name": "ProjectCreated",
      "type": "event"
    },
    {
      "anonymous": false,
      "inputs": [
        {
          "indexed": false,
          "internalType": "uint256",
          "name": "projectId",
          "type": "uint256"
        },
        {
          "indexed": false,
          "internalType": "uint8",
          "name": "status",
          "type": "uint8"
        }
      ],
      "name": "ProjectStatusChanged",
      "type": "event"
    },
    {
      "anonymous": false,
      "inputs": [
        {
          "indexed": false,
          "internalType": "uint256",
          "name": "projectId",
          "type": "uint256"
        },
        {
          "indexed": false,
          "internalType": "address",
          "name": "donor",
          "type": "address"
        },
        {
          "indexed": false,
          "internalType": "bool",
          "name": "vote",
          "type": "bool"
        }
      ],
      "name": "ProjectVoted",
      "type": "event"
    },
    {
      "inputs": [
        {
          "internalType": "address",
          "name": "_wallet",
          "type": "address"
        }
      ],
      "name": "approveAssociation",
      "outputs": [],
      "stateMutability": "nonpayable",
      "type": "function"
    },
    {
      "inputs": [
        {
          "internalType": "uint256",
          "name": "",
          "type": "uint256"
        }
      ],
      "name": "associationWallets",
      "outputs": [
        {
          "internalType": "address",
          "name": "",
          "type": "address"
        }
      ],
      "stateMutability": "view",
      "type": "function"
    },
    {
      "inputs": [
        {
          "internalType": "address",
          "name": "",
          "type": "address"
        }
      ],
      "name": "associations",
      "outputs": [
        {
          "internalType": "string",
          "name": "name",
          "type": "string"
        },
        {
          "internalType": "bool",
          "name": "isApproved",
          "type": "bool"
        }
      ],
      "stateMutability": "view",
      "type": "function"
    },
    {
      "inputs": [
        {
          "internalType": "uint256",
          "name": "_projectId",
          "type": "uint256"
        },
        {
          "internalType": "enum Chain4Good.ProjectStatus",
          "name": "_status",
          "type": "uint8"
        }
      ],
      "name": "changeProjectStatus",
      "outputs": [],
      "stateMutability": "nonpayable",
      "type": "function"
    },
    {
      "inputs": [],
      "name": "couponNFT",
      "outputs": [
        {
          "internalType": "contract CouponNFT",
          "name": "",
          "type": "address"
        }
      ],
      "stateMutability": "view",
      "type": "function"
    },
    {
      "inputs": [
        {
          "internalType": "uint256",
          "name": "_projectId",
          "type": "uint256"
        },
        {
          "internalType": "uint256",
          "name": "couponValue",
          "type": "uint256"
        }
      ],
      "name": "createCoupons",
      "outputs": [],
      "stateMutability": "nonpayable",
      "type": "function"
    },
    {
      "inputs": [
        {
          "internalType": "uint256",
          "name": "_projectId",
          "type": "uint256"
        },
        {
          "internalType": "enum Chain4Good.PoolType",
          "name": "_poolType",
          "type": "uint8"
        },
        {
          "internalType": "uint256",
          "name": "_amountRequired",
          "type": "uint256"
        },
        {
          "internalType": "address",
          "name": "_ong",
          "type": "address"
        },
        {
          "internalType": "address",
          "name": "_partner",
          "type": "address"
        }
      ],
      "name": "createProject",
      "outputs": [],
      "stateMutability": "nonpayable",
      "type": "function"
    },
    {
      "inputs": [
        {
          "internalType": "enum Chain4Good.PoolType",
          "name": "_pool",
          "type": "uint8"
        }
      ],
      "name": "donate",
      "outputs": [],
      "stateMutability": "payable",
      "type": "function"
    },
    {
      "inputs": [
        {
          "internalType": "address",
          "name": "",
          "type": "address"
        }
      ],
      "name": "donators",
      "outputs": [
        {
          "internalType": "bool",
          "name": "isRegistered",
          "type": "bool"
        },
        {
          "internalType": "uint256",
          "name": "firstDonationBlock",
          "type": "uint256"
        }
      ],
      "stateMutability": "view",
      "type": "function"
    },
    {
      "inputs": [
        {
          "internalType": "uint256",
          "name": "_projectId",
          "type": "uint256"
        }
      ],
      "name": "finallizeVotes",
      "outputs": [],
      "stateMutability": "nonpayable",
      "type": "function"
    },
    {
      "inputs": [
        {
          "internalType": "uint256",
          "name": "start",
          "type": "uint256"
        },
        {
          "internalType": "uint256",
          "name": "limit",
          "type": "uint256"
        }
      ],
      "name": "getAllAssociations",
      "outputs": [
        {
          "components": [
            {
              "internalType": "string",
              "name": "name",
              "type": "string"
            },
            {
              "internalType": "bool",
              "name": "isApproved",
              "type": "bool"
            }
          ],
          "internalType": "struct Chain4Good.Association[]",
          "name": "",
          "type": "tuple[]"
        },
        {
          "internalType": "address[]",
          "name": "",
          "type": "address[]"
        }
      ],
      "stateMutability": "view",
      "type": "function"
    },
    {
      "inputs": [
        {
          "internalType": "uint256",
          "name": "start",
          "type": "uint256"
        },
        {
          "internalType": "uint256",
          "name": "limit",
          "type": "uint256"
        }
      ],
      "name": "getAllProjects",
      "outputs": [
        {
          "internalType": "uint256[]",
          "name": "",
          "type": "uint256[]"
        },
        {
          "components": [
            {
              "internalType": "address",
              "name": "ong",
              "type": "address"
            },
            {
              "internalType": "address",
              "name": "partner",
              "type": "address"
            },
            {
              "internalType": "uint256",
              "name": "amountRequired",
              "type": "uint256"
            },
            {
              "internalType": "uint256",
              "name": "yesVotes",
              "type": "uint256"
            },
            {
              "internalType": "uint256",
              "name": "noVotes",
              "type": "uint256"
            },
            {
              "internalType": "uint256",
              "name": "startBlock",
              "type": "uint256"
            },
            {
              "internalType": "bool",
              "name": "couponsHasBeenCreated",
              "type": "bool"
            },
            {
              "internalType": "enum Chain4Good.PoolType",
              "name": "poolType",
              "type": "uint8"
            },
            {
              "internalType": "enum Chain4Good.ProjectStatus",
              "name": "status",
              "type": "uint8"
            }
          ],
          "internalType": "struct Chain4Good.Project[]",
          "name": "",
          "type": "tuple[]"
        }
      ],
      "stateMutability": "view",
      "type": "function"
    },
    {
      "inputs": [
        {
          "internalType": "address",
          "name": "_association",
          "type": "address"
        }
      ],
      "name": "getAssociation",
      "outputs": [
        {
          "internalType": "string",
          "name": "name",
          "type": "string"
        },
        {
          "internalType": "bool",
          "name": "isApproved",
          "type": "bool"
        }
      ],
      "stateMutability": "view",
      "type": "function"
    },
    {
      "inputs": [
        {
          "internalType": "enum Chain4Good.PoolType",
          "name": "_pool",
          "type": "uint8"
        },
        {
          "internalType": "address",
          "name": "_donor",
          "type": "address"
        }
      ],
      "name": "getContribution",
      "outputs": [
        {
          "internalType": "uint256",
          "name": "",
          "type": "uint256"
        }
      ],
      "stateMutability": "view",
      "type": "function"
    },
    {
      "inputs": [
        {
          "internalType": "enum Chain4Good.PoolType",
          "name": "_pool",
          "type": "uint8"
        }
      ],
      "name": "getPoolBalances",
      "outputs": [
        {
          "internalType": "uint256",
          "name": "",
          "type": "uint256"
        }
      ],
      "stateMutability": "view",
      "type": "function"
    },
    {
      "inputs": [
        {
          "internalType": "uint256",
          "name": "_projectId",
          "type": "uint256"
        }
      ],
      "name": "getProject",
      "outputs": [
        {
          "components": [
            {
              "internalType": "address",
              "name": "ong",
              "type": "address"
            },
            {
              "internalType": "address",
              "name": "partner",
              "type": "address"
            },
            {
              "internalType": "uint256",
              "name": "amountRequired",
              "type": "uint256"
            },
            {
              "internalType": "uint256",
              "name": "yesVotes",
              "type": "uint256"
            },
            {
              "internalType": "uint256",
              "name": "noVotes",
              "type": "uint256"
            },
            {
              "internalType": "uint256",
              "name": "startBlock",
              "type": "uint256"
            },
            {
              "internalType": "bool",
              "name": "couponsHasBeenCreated",
              "type": "bool"
            },
            {
              "internalType": "enum Chain4Good.PoolType",
              "name": "poolType",
              "type": "uint8"
            },
            {
              "internalType": "enum Chain4Good.ProjectStatus",
              "name": "status",
              "type": "uint8"
            }
          ],
          "internalType": "struct Chain4Good.Project",
          "name": "",
          "type": "tuple"
        }
      ],
      "stateMutability": "view",
      "type": "function"
    },
    {
      "inputs": [],
      "name": "owner",
      "outputs": [
        {
          "internalType": "address",
          "name": "",
          "type": "address"
        }
      ],
      "stateMutability": "view",
      "type": "function"
    },
    {
      "inputs": [
        {
          "internalType": "enum Chain4Good.PoolType",
          "name": "",
          "type": "uint8"
        }
      ],
      "name": "pools",
      "outputs": [
        {
          "internalType": "uint256",
          "name": "balance",
          "type": "uint256"
        }
      ],
      "stateMutability": "view",
      "type": "function"
    },
    {
      "inputs": [
        {
          "internalType": "uint256",
          "name": "",
          "type": "uint256"
        }
      ],
      "name": "projectIds",
      "outputs": [
        {
          "internalType": "uint256",
          "name": "",
          "type": "uint256"
        }
      ],
      "stateMutability": "view",
      "type": "function"
    },
    {
      "inputs": [
        {
          "internalType": "uint256",
          "name": "",
          "type": "uint256"
        }
      ],
      "name": "projects",
      "outputs": [
        {
          "internalType": "address",
          "name": "ong",
          "type": "address"
        },
        {
          "internalType": "address",
          "name": "partner",
          "type": "address"
        },
        {
          "internalType": "uint256",
          "name": "amountRequired",
          "type": "uint256"
        },
        {
          "internalType": "uint256",
          "name": "yesVotes",
          "type": "uint256"
        },
        {
          "internalType": "uint256",
          "name": "noVotes",
          "type": "uint256"
        },
        {
          "internalType": "uint256",
          "name": "startBlock",
          "type": "uint256"
        },
        {
          "internalType": "bool",
          "name": "couponsHasBeenCreated",
          "type": "bool"
        },
        {
          "internalType": "enum Chain4Good.PoolType",
          "name": "poolType",
          "type": "uint8"
        },
        {
          "internalType": "enum Chain4Good.ProjectStatus",
          "name": "status",
          "type": "uint8"
        }
      ],
      "stateMutability": "view",
      "type": "function"
    },
    {
      "inputs": [],
      "name": "quorum",
      "outputs": [
        {
          "internalType": "uint256",
          "name": "",
          "type": "uint256"
        }
      ],
      "stateMutability": "view",
      "type": "function"
    },
    {
      "inputs": [
        {
          "internalType": "string",
          "name": "_name",
          "type": "string"
        },
        {
          "internalType": "address",
          "name": "_wallet",
          "type": "address"
        }
      ],
      "name": "registerAssociation",
      "outputs": [],
      "stateMutability": "nonpayable",
      "type": "function"
    },
    {
      "inputs": [
        {
          "internalType": "address",
          "name": "_wallet",
          "type": "address"
        }
      ],
      "name": "rejectAssociation",
      "outputs": [],
      "stateMutability": "nonpayable",
      "type": "function"
    },
    {
      "inputs": [],
      "name": "renounceOwnership",
      "outputs": [],
      "stateMutability": "nonpayable",
      "type": "function"
    },
    {
      "inputs": [
        {
          "internalType": "uint256",
          "name": "_tokenRewardRate",
          "type": "uint256"
        }
      ],
      "name": "setRewardRate",
      "outputs": [],
      "stateMutability": "nonpayable",
      "type": "function"
    },
    {
      "inputs": [],
      "name": "tokenRewardRate",
      "outputs": [
        {
          "internalType": "uint256",
          "name": "",
          "type": "uint256"
        }
      ],
      "stateMutability": "view",
      "type": "function"
    },
    {
      "inputs": [
        {
          "internalType": "address",
          "name": "newOwner",
          "type": "address"
        }
      ],
      "name": "transferOwnership",
      "outputs": [],
      "stateMutability": "nonpayable",
      "type": "function"
    },
    {
      "inputs": [],
      "name": "veraToken",
      "outputs": [
        {
          "internalType": "contract VeraToken",
          "name": "",
          "type": "address"
        }
      ],
      "stateMutability": "view",
      "type": "function"
    },
    {
      "inputs": [
        {
          "internalType": "uint256",
          "name": "_projectId",
          "type": "uint256"
        },
        {
          "internalType": "bool",
          "name": "_vote",
          "type": "bool"
        }
      ],
      "name": "voteOnProject",
      "outputs": [],
      "stateMutability": "nonpayable",
      "type": "function"
    },
    {
      "inputs": [],
      "name": "votingDelay",
      "outputs": [
        {
          "internalType": "uint256",
          "name": "",
          "type": "uint256"
        }
      ],
      "stateMutability": "view",
      "type": "function"
    }
  ],
  "bytecode": "0x608060405234801561001057600080fd5b50604051612cd5380380612cd583398101604081905261002f9161025a565b338061005657604051631e4fbdf760e01b8152600060048201526024015b60405180910390fd5b61005f816101f2565b5060018055848465ffffffffffff85168484846001600160a01b0381166100a557604051634726455360e11b81526001600160a01b03909116600482015260240161004d565b50836001600160a01b0381166100da57604051634726455360e11b81526001600160a01b03909116600482015260240161004d565b506000831161011a5760405163dd23c3ad60e01b815260206004820152600b60248201526a766f74696e6744656c617960a81b604482015260640161004d565b6000821161015d5760405163dd23c3ad60e01b815260206004820152600f60248201526e746f6b656e5265776172645261746560881b604482015260640161004d565b60008111801561016e575060648111155b6101a45760405163dd23c3ad60e01b815260206004820152600660248201526571756f72756d60d01b604482015260640161004d565b5050600280546001600160a01b03998a166001600160a01b03199182161790915560038054989099169716969096179096555065ffffffffffff909216600455600555600655506102c39050565b600080546001600160a01b038381166001600160a01b0319831681178455604051919092169283917f8be0079c531659141344cd1fd0a4f28419497f9722a3daafe3b4186f6b6457e09190a35050565b6001600160a01b038116811461025757600080fd5b50565b600080600080600060a0868803121561027257600080fd5b855161027d81610242565b602087015190955061028e81610242565b604087015190945065ffffffffffff811681146102aa57600080fd5b6060870151608090970151959894975095949392505050565b612a03806102d26000396000f3fe6080604052600436106101cd5760003560e01c80638da5cb5b116100f7578063d24f8cdd11610095578063f2fde38b11610064578063f2fde38b146105d0578063f7d52d95146105f0578063fa15551714610610578063fb87a6351461063e57600080fd5b8063d24f8cdd1461051f578063e13c649114610570578063e5b0b36b14610590578063f0f3f2c8146105a357600080fd5b80639e447fc6116100d15780639e447fc61461049f5780639ea65d6c146104bf578063af123e9f146104df578063c7acf258146104ff57600080fd5b80638da5cb5b1461041f57806392ce70ed1461045157806395d1d4c51461047f57600080fd5b806326eb254e1161016f5780634339e6121161013e5780634339e612146103b457806348c35ad4146103d45780635660000a146103f4578063715018a61461040a57600080fd5b806326eb254e1461033e578063297d57eb1461035e5780633932abb11461037e5780633d79ee411461039457600080fd5b80631593d6e7116101ab5780631593d6e7146102ac5780631703a018146102cc578063189c95f1146102f057806321b5f6a21461031e57600080fd5b806306f87309146101d2578063107046bd146101f45780631204a89a1461028c575b600080fd5b3480156101de57600080fd5b506101f26101ed36600461214b565b61066b565b005b34801561020057600080fd5b5061026e61020f3660046121a2565b600c6020526000908152604090208054600182015460028301546003840154600485015460058601546006909601546001600160a01b0395861696959094169492939192909160ff808216916101008104821691620100009091041689565b604051610283999897969594939291906121f5565b60405180910390f35b34801561029857600080fd5b506101f26102a736600461225b565b6108f9565b3480156102b857600080fd5b506101f26102c73660046121a2565b6109d2565b3480156102d857600080fd5b506102e260065481565b604051908152602001610283565b3480156102fc57600080fd5b5061031061030b36600461227d565b610b4c565b604051610283929190612325565b34801561032a57600080fd5b506101f26103393660046123b3565b610d97565b34801561034a57600080fd5b506102e26103593660046123e7565b610e0a565b34801561036a57600080fd5b506101f261037936600461227d565b610e71565b34801561038a57600080fd5b506102e260045481565b3480156103a057600080fd5b506102e26103af36600461241a565b611171565b3480156103c057600080fd5b506101f26103cf366004612435565b6111b1565b3480156103e057600080fd5b506102e26103ef3660046121a2565b61149b565b34801561040057600080fd5b506102e260055481565b34801561041657600080fd5b506101f26114bc565b34801561042b57600080fd5b506000546001600160a01b03165b6040516001600160a01b039091168152602001610283565b34801561045d57600080fd5b5061047161046c36600461225b565b6114d0565b6040516102839291906124a5565b34801561048b57600080fd5b5061047161049a36600461225b565b6115d2565b3480156104ab57600080fd5b506101f26104ba3660046121a2565b611679565b3480156104cb57600080fd5b506104396104da3660046121a2565b611686565b3480156104eb57600080fd5b50600354610439906001600160a01b031681565b34801561050b57600080fd5b50600254610439906001600160a01b031681565b34801561052b57600080fd5b5061055961053a36600461225b565b6009602052600090815260409020805460019091015460ff9091169082565b604080519215158352602083019190915201610283565b34801561057c57600080fd5b506101f261058b3660046124c9565b6116b0565b6101f261059e36600461241a565b611893565b3480156105af57600080fd5b506105c36105be3660046121a2565b611a8b565b604051610283919061254c565b3480156105dc57600080fd5b506101f26105eb36600461225b565b611b78565b3480156105fc57600080fd5b506101f261060b36600461225b565b611bb6565b34801561061c57600080fd5b5061063061062b36600461227d565b611d66565b6040516102839291906125a0565b34801561064a57600080fd5b506102e261065936600461241a565b600a6020526000908152604090205481565b610673611fe0565b6000831180156106bb5750600a6000856005811115610694576106946121bb565b60058111156106a5576106a56121bb565b8152602001908152602001600020600001548311155b836001600a60008860058111156106d4576106d46121bb565b60058111156106e5576106e56121bb565b81526020019081526020016000206000015490919261072d576040516346f4384b60e01b81526004810193909352602483019190915260448201526064015b60405180910390fd5b5050506000858152600c6020526040902060050154859015610786576040805163a6894fe760e01b815260048101919091526007604482015266141c9bda9958dd60ca1b60648201526024810191909152608401610724565b50816001600160a01b0381166107bb57604051634726455360e11b81526001600160a01b039091166004820152602401610724565b50806001600160a01b0381166107f057604051634726455360e11b81526001600160a01b039091166004820152602401610724565b506000858152600c60205260409020600601805485919061ff001916610100836005811115610821576108216121bb565b02179055506000858152600c60205260408082206002810186905560068101805462ff00001916905580546001600160a01b038681166001600160a01b0319928316178355600180840180549288169290931691909117909155436005909201919091556007805491820181559092527fa66cc928b5edb82af9bd49922954155ab7b0942694bea4ce44661d9a8736c688909101869055517f2f4a5d17505b4a607156ff4b360be8d9bbd4e35be471c9ca2f11a0dad827be34906108ea9087908790879061262e565b60405180910390a15050505050565b610901611fe0565b6001600160a01b0381166000908152600b60205260408120805461092490612650565b90501161094457604051630f31fc5360e31b81526004016107249061268a565b6001600160a01b0381166000908152600b602052604090206001015460ff16156109815760405163080fc0bd60e11b815260040160405180910390fd5b6001600160a01b0381166000818152600b60205260408082206001908101805460ff19169091179055517f59b84723093522a098b6b91a121cd522e9bbfb32caf7ed5e8a29a8c2f26aa8f59190a250565b6109da611fe0565b6000818152600c60205260408120600201549003610a2557604051630f31fc5360e31b81526020600482015260076024820152661c1c9bda9958dd60ca1b6044820152606401610724565b6004546000828152600c6020526040902060050154610a4491906126c5565b4310158143600454600c600086815260200190815260200160002060050154610a6d91906126c5565b909192610a9e57604051630715c91160e21b8152600481019390935260248301919091526044820152606401610724565b5050506000818152600c60205260409020600481015460038201541115610ad75760068101805462ff0000191662010000179055610aeb565b60068101805462ff00001916620200001790555b60068101547f35872be4c2085eaf9ca9a10d056eefec79968f825846792411ede75f331e939290839062010000900460ff166004811115610b2e57610b2e6121bb565b6040805192835260ff90911660208301520160405180910390a15050565b60075460609081908410610b735760405163d44197ab60e01b815260040160405180910390fd5b600754600090610b8385876126c5565b11610b9757610b9284866126c5565b610b9b565b6007545b90506000610ba986836126d8565b67ffffffffffffffff811115610bc157610bc16126eb565b604051908082528060200260200182016040528015610bfa57816020015b610be7612087565b815260200190600190039081610bdf5790505b509050855b82811015610d3457600c600060078381548110610c1e57610c1e612701565b60009182526020808320909101548352828101939093526040918201902081516101208101835281546001600160a01b03908116825260018301541693810193909352600281015491830191909152600381015460608301526004810154608083015260058082015460a0840152600682015460ff808216151560c086015260e08501926101009092041690811115610cb957610cb96121bb565b6005811115610cca57610cca6121bb565b81526020016006820160029054906101000a900460ff166004811115610cf257610cf26121bb565b6004811115610d0357610d036121bb565b90525082610d1189846126d8565b81518110610d2157610d21612701565b6020908102919091010152600101610bff565b5060078181805480602002602001604051908101604052809291908181526020018280548015610d8357602002820191906000526020600020905b815481526020019060010190808311610d6f575b505050505091509350935050509250929050565b610d9f611fe0565b6000828152600c60205260409020600601805482919062ff0000191662010000836004811115610dd157610dd16121bb565b02179055507f35872be4c2085eaf9ca9a10d056eefec79968f825846792411ede75f331e939282826004811115610b2e57610b2e6121bb565b6000600a6000846005811115610e2257610e226121bb565b6005811115610e3357610e336121bb565b81526020019081526020016000206001016000836001600160a01b03166001600160a01b031681526020019081526020016000205490505b92915050565b610e7961200d565b6000828152600c602052604090206002810154610e9790839061272d565b6000848152600c602052604090206002015490839015610ed357604051635f5f720160e01b815260048101929092526024820152604401610724565b5060019050600682015462010000900460ff166004811115610ef757610ef76121bb565b6000858152600c602052604090206006015485926201000090910460ff169160019114610f3a57604051630f05ff0160e11b815260040161072493929190612741565b505081546001600160a01b031633149050610f68576040516349e27cff60e01b815260040160405180910390fd5b6006810154839060ff1615610fb4576040805163a6894fe760e01b815260048101919091526007604482015266436f75706f6e7360c81b60648201526024810191909152608401610724565b5060035460028201546040516000926001600160a01b031691908381818185875af1925050503d8060008114611006576040519150601f19603f3d011682016040523d82523d6000602084013e61100b565b606091505b505090508061102d57604051637a1ba5cd60e01b815260040160405180910390fd5b6000848152600c602052604081206002015461104a90859061276a565b6003546001850154604051630772717960e11b815260048101889052602481018990526001600160a01b039182166044820152606481018490529293501690630ee4e2f2906084016000604051808303816000875af11580156110b1573d6000803e3d6000fd5b505050506040513d6000823e601f3d908101601f191682016040526110d9919081019061277e565b506006830180546203000162ff00ff1990911617905560408051868152600360208201527f35872be4c2085eaf9ca9a10d056eefec79968f825846792411ede75f331e9392910160405180910390a160408051868152602081018390527f3fd7c07f90e3e6ff7c56520539b8238e5170190baf540caea60e096d7fc6e2be910160405180910390a150505061116d60018055565b5050565b6000600a6000836005811115611189576111896121bb565b600581111561119a5761119a6121bb565b815260208101919091526040016000205492915050565b6000828152600c6020908152604080832033808552600990935281842060025492516370a0823160e01b815260048101949094529093909290916001600160a01b0316906370a0823190602401602060405180830381865afa15801561121b573d6000803e3d6000fd5b505050506040513d601f19601f8201168201806040525081019061123f919061284b565b6000868152600284016020526040902083549192509060ff16611275576040516349e27cff60e01b815260040160405180910390fd5b83600501546000036112b457604051630f31fc5360e31b81526020600482015260076024820152661c1c9bda9958dd60ca1b6044820152606401610724565b83600501548360010154106112dc5760405163c35ae40160e01b815260040160405180910390fd5b6000600a60008660060160019054906101000a900460ff166005811115611305576113056121bb565b6005811115611316576113166121bb565b8152602080820192909252604090810160009081203382526001019092529020541161135557604051637fb16f1b60e01b815260040160405180910390fd5b6000600685015462010000900460ff166004811115611376576113766121bb565b14868560060160029054906101000a900460ff1660009091926113af57604051630f05ff0160e11b815260040161072493929190612741565b5050506000821182906113d857604051639266535160e01b815260040161072491815260200190565b50805460ff16156113fc57604051637c9a1cf960e01b815260040160405180910390fd5b8054851580156101000261ffff19909216919091176001178255611439578184600301600082825461142e91906126c5565b909155506114539050565b8184600401600082825461144d91906126c5565b90915550505b604080518781523360208201528615158183015290517f90e745fb7ec06d6679dec571bb9b4e828cf2e1fed54f61c21bb55913fd9ac8b69181900360600190a1505050505050565b600781815481106114ab57600080fd5b600091825260209091200154905081565b6114c4611fe0565b6114ce6000612037565b565b6001600160a01b0381166000908152600b6020526040812080546060929182916114f990612650565b90501161151957604051630f31fc5360e31b81526004016107249061268a565b6001600160a01b0383166000908152600b602052604090206001810154815460ff90911690829061154990612650565b80601f016020809104026020016040519081016040528092919081815260200182805461157590612650565b80156115c25780601f10611597576101008083540402835291602001916115c2565b820191906000526020600020905b8154815290600101906020018083116115a557829003601f168201915b5050505050915091509150915091565b600b602052600090815260409020805481906115ed90612650565b80601f016020809104026020016040519081016040528092919081815260200182805461161990612650565b80156116665780601f1061163b57610100808354040283529160200191611666565b820191906000526020600020905b81548152906001019060200180831161164957829003601f168201915b5050506001909301549192505060ff1682565b611681611fe0565b600555565b6008818154811061169657600080fd5b6000918252602090912001546001600160a01b0316905081565b806001600160a01b0381166116d857604051636e5ec59f60e01b815260040160405180910390fd5b8261170f5760405163dd23c3ad60e01b8152600401610724906020808252600490820152634e616d6560e01b604082015260600190565b6001600160a01b0382166000908152600b60205260409020805461173290612650565b6001600160a01b038416915015611784576040805163a6894fe760e01b81526004810191909152600b60448201526a20b9b9b7b1b4b0ba34b7b760a91b60648201526024810191909152608401610724565b506040805160606020601f87018190040282018101835291810185815290918291908790879081908501838280828437600092018290525093855250505060209182018190526001600160a01b0385168152600b90915260409020815181906117ed90826128b2565b50602091909101516001918201805460ff19169115159190911790556008805491820181556000527ff3f7a9fe364faab93b216da50a3214154f22a0a2b415b23a84c8169e8b636ee30180546001600160a01b0319166001600160a01b0384169081179091556040517f9b7e0bbd8d22988d9e58388ab24023d1bf94589f925123e43b88d6f303da744d906118859087908790612971565b60405180910390a250505050565b346000036118b4576040516310da36dd60e21b815260040160405180910390fd5b34600a60008360058111156118cb576118cb6121bb565b60058111156118dc576118dc6121bb565b815260200190815260200160002060000160008282546118fc91906126c5565b90915550349050600a6000836005811115611919576119196121bb565b600581111561192a5761192a6121bb565b81526020019081526020016000206001016000336001600160a01b03166001600160a01b03168152602001908152602001600020600082825461196d91906126c5565b90915550503360009081526009602052604090205460ff166119ac5733600090815260096020526040902043600180830191909155815460ff19161790555b60006119c067016345785d8a00003461276a565b6119cb90600a6129a0565b6002546040516340c10f1960e01b8152336004820152602481018390529192506001600160a01b0316906340c10f1990604401600060405180830381600087803b158015611a1857600080fd5b505af1158015611a2c573d6000803e3d6000fd5b50505050336001600160a01b03167ffe583919ec07beba8a77df69e4cf92a659a70e45c536d8d6f02d8399d68e1497836005811115611a6d57611a6d6121bb565b6040805160ff90921682523460208301520160405180910390a25050565b611a93612087565b6000828152600c602090815260409182902082516101208101845281546001600160a01b03908116825260018301541692810192909252600281015492820192909252600382015460608201526004820154608082015260058083015460a0830152600683015460ff808216151560c085015292939260e08501926101009092041690811115611b2557611b256121bb565b6005811115611b3657611b366121bb565b81526020016006820160029054906101000a900460ff166004811115611b5e57611b5e6121bb565b6004811115611b6f57611b6f6121bb565b90525092915050565b611b80611fe0565b6001600160a01b038116611baa57604051631e4fbdf760e01b815260006004820152602401610724565b611bb381612037565b50565b611bbe611fe0565b6001600160a01b0381166000908152600b602052604081208054611be190612650565b905011611c0157604051630f31fc5360e31b81526004016107249061268a565b60005b600854811015611cff57816001600160a01b031660088281548110611c2b57611c2b612701565b6000918252602090912001546001600160a01b031603611cf75760088054611c55906001906126d8565b81548110611c6557611c65612701565b600091825260209091200154600880546001600160a01b039092169183908110611c9157611c91612701565b9060005260206000200160006101000a8154816001600160a01b0302191690836001600160a01b031602179055506008805480611cd057611cd06129b7565b600082815260209020810160001990810180546001600160a01b0319169055019055611cff565b600101611c04565b506001600160a01b0381166000908152600b6020526040812090611d2382826120d2565b50600101805460ff191690556040516001600160a01b038216907f5f0318cd05dddbbde99cf8183ba2941da11dbb1e968cfc4f9cffe172d317b71e90600090a250565b60085460609081908410611dbc5760405162461bcd60e51b815260206004820152601960248201527f537461727420696e646578206f7574206f6620626f756e6473000000000000006044820152606401610724565b600854600090611dcc85876126c5565b11611de057611ddb84866126c5565b611de4565b6008545b90506000611df286836126d8565b67ffffffffffffffff811115611e0a57611e0a6126eb565b604051908082528060200260200182016040528015611e5057816020015b604080518082019091526060815260006020820152815260200190600190039081611e285790505b509050855b82811015611f7357600b600060088381548110611e7457611e74612701565b60009182526020808320909101546001600160a01b0316835282019290925260409081019091208151808301909252805482908290611eb290612650565b80601f0160208091040260200160405190810160405280929190818152602001828054611ede90612650565b8015611f2b5780601f10611f0057610100808354040283529160200191611f2b565b820191906000526020600020905b815481529060010190602001808311611f0e57829003601f168201915b50505091835250506001919091015460ff16151560209091015282611f5089846126d8565b81518110611f6057611f60612701565b6020908102919091010152600101611e55565b5080600880805480602002602001604051908101604052809291908181526020018280548015611fcc57602002820191906000526020600020905b81546001600160a01b03168152600190910190602001808311611fae575b505050505090509350935050509250929050565b6000546001600160a01b031633146114ce5760405163118cdaa760e01b8152336004820152602401610724565b60026001540361203057604051633ee5aeb560e01b815260040160405180910390fd5b6002600155565b600080546001600160a01b038381166001600160a01b0319831681178455604051919092169283917f8be0079c531659141344cd1fd0a4f28419497f9722a3daafe3b4186f6b6457e09190a35050565b6040805161012081018252600080825260208201819052918101829052606081018290526080810182905260a0810182905260c081018290529060e082019081526020016000905290565b5080546120de90612650565b6000825580601f106120ee575050565b601f016020900490600052602060002090810190611bb391905b8082111561211c5760008155600101612108565b5090565b80356006811061212f57600080fd5b919050565b80356001600160a01b038116811461212f57600080fd5b600080600080600060a0868803121561216357600080fd5b8535945061217360208701612120565b93506040860135925061218860608701612134565b915061219660808701612134565b90509295509295909350565b6000602082840312156121b457600080fd5b5035919050565b634e487b7160e01b600052602160045260246000fd5b600681106121e1576121e16121bb565b9052565b600581106121e1576121e16121bb565b6001600160a01b038a811682528916602082015260408101889052606081018790526080810186905260a0810185905283151560c0820152610120810161223f60e08301856121d1565b61224d6101008301846121e5565b9a9950505050505050505050565b60006020828403121561226d57600080fd5b61227682612134565b9392505050565b6000806040838503121561229057600080fd5b50508035926020909101359150565b60018060a01b03815116825260018060a01b03602082015116602083015260408101516040830152606081015160608301526080810151608083015260a081015160a083015260c08101516122f860c084018215159052565b5060e081015161230b60e08401826121d1565b506101008101516123206101008401826121e5565b505050565b6040808252835190820181905260009060208501906060840190835b8181101561235f578351835260209384019390920191600101612341565b50508381036020808601919091528551808352918101925085019060005b818110156123a75761239084845161229f565b61012093909301926020929092019160010161237d565b50919695505050505050565b600080604083850312156123c657600080fd5b823591506020830135600581106123dc57600080fd5b809150509250929050565b600080604083850312156123fa57600080fd5b61240383612120565b915061241160208401612134565b90509250929050565b60006020828403121561242c57600080fd5b61227682612120565b6000806040838503121561244857600080fd5b82359150602083013580151581146123dc57600080fd5b6000815180845260005b8181101561248557602081850181015186830182015201612469565b506000602082860101526020601f19601f83011685010191505092915050565b6040815260006124b8604083018561245f565b905082151560208301529392505050565b6000806000604084860312156124de57600080fd5b833567ffffffffffffffff8111156124f557600080fd5b8401601f8101861361250657600080fd5b803567ffffffffffffffff81111561251d57600080fd5b86602082840101111561252f57600080fd5b602091820194509250612543908501612134565b90509250925092565b6101208101610e6b828461229f565b600081518084526020840193506020830160005b828110156125965781516001600160a01b031686526020958601959091019060010161256f565b5093949350505050565b6000604082016040835280855180835260608501915060608160051b86010192506020870160005b8281101561260f57605f1987860301845281518051604087526125ee604088018261245f565b602092830151151597830197909752509384019391909101906001016125c8565b505050508281036020840152612625818561255b565b95945050505050565b8381526060810161264260208301856121d1565b826040830152949350505050565b600181811c9082168061266457607f821691505b60208210810361268457634e487b7160e01b600052602260045260246000fd5b50919050565b6020808252600b908201526a30b9b9b7b1b4b0ba34b7b760a91b604082015260600190565b634e487b7160e01b600052601160045260246000fd5b80820180821115610e6b57610e6b6126af565b81810381811115610e6b57610e6b6126af565b634e487b7160e01b600052604160045260246000fd5b634e487b7160e01b600052603260045260246000fd5b634e487b7160e01b600052601260045260246000fd5b60008261273c5761273c612717565b500690565b8381526060810161275560208301856121e5565b61276260408301846121e5565b949350505050565b60008261277957612779612717565b500490565b60006020828403121561279057600080fd5b815167ffffffffffffffff8111156127a757600080fd5b8201601f810184136127b857600080fd5b805167ffffffffffffffff8111156127d2576127d26126eb565b8060051b604051601f19603f830116810181811067ffffffffffffffff821117156127ff576127ff6126eb565b60405291825260208184018101929081018784111561281d57600080fd5b6020850194505b8385101561284057845180825260209586019590935001612824565b509695505050505050565b60006020828403121561285d57600080fd5b5051919050565b601f82111561232057806000526020600020601f840160051c8101602085101561288b5750805b601f840160051c820191505b818110156128ab5760008155600101612897565b5050505050565b815167ffffffffffffffff8111156128cc576128cc6126eb565b6128e0816128da8454612650565b84612864565b6020601f82116001811461291457600083156128fc5750848201515b600019600385901b1c1916600184901b1784556128ab565b600084815260208120601f198516915b828110156129445787850151825560209485019460019092019101612924565b50848210156129625786840151600019600387901b60f8161c191681555b50505050600190811b01905550565b60208152816020820152818360408301376000818301604090810191909152601f909201601f19160101919050565b8082028115828204841417610e6b57610e6b6126af565b634e487b7160e01b600052603160045260246000fdfea2646970667358221220c96bdc11cfa61f2b328cf35a06dadb43b26e5548263e13599a5da0d5e5eccd1d64736f6c634300081c0033",
  "linkReferences": {},
  "deployedLinkReferences": {}
}