{
  "_format": "hh-sol-artifact-1",
  "contractName": "CouponNFT",
  "sourceName": "contracts/CouponNFT.sol",
  "abi": [
    {
      "inputs": [
        {
          "internalType": "address",
          "name": "initialOwner",
          "type": "address"
        }
      ],
      "stateMutability": "nonpayable",
      "type": "constructor"
    },
    {
      "inputs": [
        {
          "internalType": "address",
          "name": "sender",
          "type": "address"
        },
        {
          "internalType": "uint256",
          "name": "tokenId",
          "type": "uint256"
        },
        {
          "internalType": "address",
          "name": "owner",
          "type": "address"
        }
      ],
      "name": "ERC721IncorrectOwner",
      "type": "error"
    },
    {
      "inputs": [
        {
          "internalType": "address",
          "name": "operator",
          "type": "address"
        },
        {
          "internalType": "uint256",
          "name": "tokenId",
          "type": "uint256"
        }
      ],
      "name": "ERC721InsufficientApproval",
      "type": "error"
    },
    {
      "inputs": [
        {
          "internalType": "address",
          "name": "approver",
          "type": "address"
        }
      ],
      "name": "ERC721InvalidApprover",
      "type": "error"
    },
    {
      "inputs": [
        {
          "internalType": "address",
          "name": "operator",
          "type": "address"
        }
      ],
      "name": "ERC721InvalidOperator",
      "type": "error"
    },
    {
      "inputs": [
        {
          "internalType": "address",
          "name": "owner",
          "type": "address"
        }
      ],
      "name": "ERC721InvalidOwner",
      "type": "error"
    },
    {
      "inputs": [
        {
          "internalType": "address",
          "name": "receiver",
          "type": "address"
        }
      ],
      "name": "ERC721InvalidReceiver",
      "type": "error"
    },
    {
      "inputs": [
        {
          "internalType": "address",
          "name": "sender",
          "type": "address"
        }
      ],
      "name": "ERC721InvalidSender",
      "type": "error"
    },
    {
      "inputs": [
        {
          "internalType": "uint256",
          "name": "tokenId",
          "type": "uint256"
        }
      ],
      "name": "ERC721NonexistentToken",
      "type": "error"
    },
    {
      "inputs": [],
      "name": "FailedTransfer",
      "type": "error"
    },
    {
      "inputs": [],
      "name": "InsuffisiantBalance",
      "type": "error"
    },
    {
      "inputs": [],
      "name": "NonexistentCoupon",
      "type": "error"
    },
    {
      "inputs": [],
      "name": "NotCouponOwner",
      "type": "error"
    },
    {
      "inputs": [
        {
          "internalType": "address",
          "name": "owner",
          "type": "address"
        }
      ],
      "name": "OwnableInvalidOwner",
      "type": "error"
    },
    {
      "inputs": [
        {
          "internalType": "address",
          "name": "account",
          "type": "address"
        }
      ],
      "name": "OwnableUnauthorizedAccount",
      "type": "error"
    },
    {
      "anonymous": false,
      "inputs": [
        {
          "indexed": true,
          "internalType": "address",
          "name": "owner",
          "type": "address"
        },
        {
          "indexed": true,
          "internalType": "address",
          "name": "approved",
          "type": "address"
        },
        {
          "indexed": true,
          "internalType": "uint256",
          "name": "tokenId",
          "type": "uint256"
        }
      ],
      "name": "Approval",
      "type": "event"
    },
    {
      "anonymous": false,
      "inputs": [
        {
          "indexed": true,
          "internalType": "address",
          "name": "owner",
          "type": "address"
        },
        {
          "indexed": true,
          "internalType": "address",
          "name": "operator",
          "type": "address"
        },
        {
          "indexed": false,
          "internalType": "bool",
          "name": "approved",
          "type": "bool"
        }
      ],
      "name": "ApprovalForAll",
      "type": "event"
    },
    {
      "anonymous": false,
      "inputs": [
        {
          "indexed": false,
          "internalType": "uint256",
          "name": "_fromTokenId",
          "type": "uint256"
        },
        {
          "indexed": false,
          "internalType": "uint256",
          "name": "_toTokenId",
          "type": "uint256"
        }
      ],
      "name": "BatchMetadataUpdate",
      "type": "event"
    },
    {
      "anonymous": false,
      "inputs": [
        {
          "indexed": true,
          "internalType": "uint256",
          "name": "tokenId",
          "type": "uint256"
        },
        {
          "indexed": true,
          "internalType": "uint256",
          "name": "projectId",
          "type": "uint256"
        },
        {
          "indexed": true,
          "internalType": "address",
          "name": "redeemer",
          "type": "address"
        },
        {
          "indexed": false,
          "internalType": "uint256",
          "name": "value",
          "type": "uint256"
        }
      ],
      "name": "CouponRedeemed",
      "type": "event"
    },
    {
      "anonymous": false,
      "inputs": [
        {
          "indexed": true,
          "internalType": "address",
          "name": "owner",
          "type": "address"
        },
        {
          "indexed": false,
          "internalType": "uint256",
          "name": "amount",
          "type": "uint256"
        }
      ],
      "name": "EtherWithdrawn",
      "type": "event"
    },
    {
      "anonymous": false,
      "inputs": [
        {
          "indexed": false,
          "internalType": "uint256",
          "name": "_tokenId",
          "type": "uint256"
        }
      ],
      "name": "MetadataUpdate",
      "type": "event"
    },
    {
      "anonymous": false,
      "inputs": [
        {
          "indexed": true,
          "internalType": "address",
          "name": "previousOwner",
          "type": "address"
        },
        {
          "indexed": true,
          "internalType": "address",
          "name": "newOwner",
          "type": "address"
        }
      ],
      "name": "OwnershipTransferred",
      "type": "event"
    },
    {
      "anonymous": false,
      "inputs": [
        {
          "indexed": true,
          "internalType": "address",
          "name": "from",
          "type": "address"
        },
        {
          "indexed": true,
          "internalType": "address",
          "name": "to",
          "type": "address"
        },
        {
          "indexed": true,
          "internalType": "uint256",
          "name": "tokenId",
          "type": "uint256"
        }
      ],
      "name": "Transfer",
      "type": "event"
    },
    {
      "inputs": [
        {
          "internalType": "address",
          "name": "to",
          "type": "address"
        },
        {
          "internalType": "uint256",
          "name": "tokenId",
          "type": "uint256"
        }
      ],
      "name": "approve",
      "outputs": [],
      "stateMutability": "nonpayable",
      "type": "function"
    },
    {
      "inputs": [
        {
          "internalType": "address",
          "name": "owner",
          "type": "address"
        }
      ],
      "name": "balanceOf",
      "outputs": [
        {
          "internalType": "uint256",
          "name": "",
          "type": "uint256"
        }
      ],
      "stateMutability": "view",
      "type": "function"
    },
    {
      "inputs": [
        {
          "internalType": "uint256",
          "name": "value",
          "type": "uint256"
        },
        {
          "internalType": "uint256",
          "name": "projectId",
          "type": "uint256"
        },
        {
          "internalType": "address",
          "name": "receiver",
          "type": "address"
        },
        {
          "internalType": "uint256",
          "name": "numberOfCoupons",
          "type": "uint256"
        }
      ],
      "name": "createCoupons",
      "outputs": [
        {
          "internalType": "uint256[]",
          "name": "",
          "type": "uint256[]"
        }
      ],
      "stateMutability": "nonpayable",
      "type": "function"
    },
    {
      "inputs": [
        {
          "internalType": "uint256",
          "name": "tokenId",
          "type": "uint256"
        }
      ],
      "name": "getApproved",
      "outputs": [
        {
          "internalType": "address",
          "name": "",
          "type": "address"
        }
      ],
      "stateMutability": "view",
      "type": "function"
    },
    {
      "inputs": [
        {
          "internalType": "uint256",
          "name": "tokenId",
          "type": "uint256"
        },
        {
          "internalType": "uint256",
          "name": "projectId",
          "type": "uint256"
        }
      ],
      "name": "getCouponValue",
      "outputs": [
        {
          "internalType": "uint256",
          "name": "",
          "type": "uint256"
        }
      ],
      "stateMutability": "view",
      "type": "function"
    },
    {
      "inputs": [
        {
          "internalType": "uint256",
          "name": "projectId",
          "type": "uint256"
        }
      ],
      "name": "getCouponsByProject",
      "outputs": [
        {
          "internalType": "uint256[]",
          "name": "",
          "type": "uint256[]"
        },
        {
          "internalType": "uint256[]",
          "name": "",
          "type": "uint256[]"
        }
      ],
      "stateMutability": "view",
      "type": "function"
    },
    {
      "inputs": [
        {
          "internalType": "address",
          "name": "owner",
          "type": "address"
        },
        {
          "internalType": "address",
          "name": "operator",
          "type": "address"
        }
      ],
      "name": "isApprovedForAll",
      "outputs": [
        {
          "internalType": "bool",
          "name": "",
          "type": "bool"
        }
      ],
      "stateMutability": "view",
      "type": "function"
    },
    {
      "inputs": [],
      "name": "name",
      "outputs": [
        {
          "internalType": "string",
          "name": "",
          "type": "string"
        }
      ],
      "stateMutability": "view",
      "type": "function"
    },
    {
      "inputs": [],
      "name": "nextTokenId",
      "outputs": [
        {
          "internalType": "uint256",
          "name": "",
          "type": "uint256"
        }
      ],
      "stateMutability": "view",
      "type": "function"
    },
    {
      "inputs": [],
      "name": "owner",
      "outputs": [
        {
          "internalType": "address",
          "name": "",
          "type": "address"
        }
      ],
      "stateMutability": "view",
      "type": "function"
    },
    {
      "inputs": [
        {
          "internalType": "uint256",
          "name": "tokenId",
          "type": "uint256"
        }
      ],
      "name": "ownerOf",
      "outputs": [
        {
          "internalType": "address",
          "name": "",
          "type": "address"
        }
      ],
      "stateMutability": "view",
      "type": "function"
    },
    {
      "inputs": [
        {
          "internalType": "uint256",
          "name": "tokenId",
          "type": "uint256"
        },
        {
          "internalType": "uint256",
          "name": "projectId",
          "type": "uint256"
        }
      ],
      "name": "redeemCoupon",
      "outputs": [],
      "stateMutability": "nonpayable",
      "type": "function"
    },
    {
      "inputs": [],
      "name": "renounceOwnership",
      "outputs": [],
      "stateMutability": "nonpayable",
      "type": "function"
    },
    {
      "inputs": [
        {
          "internalType": "address",
          "name": "from",
          "type": "address"
        },
        {
          "internalType": "address",
          "name": "to",
          "type": "address"
        },
        {
          "internalType": "uint256",
          "name": "tokenId",
          "type": "uint256"
        }
      ],
      "name": "safeTransferFrom",
      "outputs": [],
      "stateMutability": "nonpayable",
      "type": "function"
    },
    {
      "inputs": [
        {
          "internalType": "address",
          "name": "from",
          "type": "address"
        },
        {
          "internalType": "address",
          "name": "to",
          "type": "address"
        },
        {
          "internalType": "uint256",
          "name": "tokenId",
          "type": "uint256"
        },
        {
          "internalType": "bytes",
          "name": "data",
          "type": "bytes"
        }
      ],
      "name": "safeTransferFrom",
      "outputs": [],
      "stateMutability": "nonpayable",
      "type": "function"
    },
    {
      "inputs": [
        {
          "internalType": "address",
          "name": "operator",
          "type": "address"
        },
        {
          "internalType": "bool",
          "name": "approved",
          "type": "bool"
        }
      ],
      "name": "setApprovalForAll",
      "outputs": [],
      "stateMutability": "nonpayable",
      "type": "function"
    },
    {
      "inputs": [
        {
          "internalType": "bytes4",
          "name": "interfaceId",
          "type": "bytes4"
        }
      ],
      "name": "supportsInterface",
      "outputs": [
        {
          "internalType": "bool",
          "name": "",
          "type": "bool"
        }
      ],
      "stateMutability": "view",
      "type": "function"
    },
    {
      "inputs": [],
      "name": "symbol",
      "outputs": [
        {
          "internalType": "string",
          "name": "",
          "type": "string"
        }
      ],
      "stateMutability": "view",
      "type": "function"
    },
    {
      "inputs": [
        {
          "internalType": "uint256",
          "name": "tokenId",
          "type": "uint256"
        }
      ],
      "name": "tokenURI",
      "outputs": [
        {
          "internalType": "string",
          "name": "",
          "type": "string"
        }
      ],
      "stateMutability": "view",
      "type": "function"
    },
    {
      "inputs": [
        {
          "internalType": "address",
          "name": "from",
          "type": "address"
        },
        {
          "internalType": "address",
          "name": "to",
          "type": "address"
        },
        {
          "internalType": "uint256",
          "name": "tokenId",
          "type": "uint256"
        }
      ],
      "name": "transferFrom",
      "outputs": [],
      "stateMutability": "nonpayable",
      "type": "function"
    },
    {
      "inputs": [
        {
          "internalType": "address",
          "name": "newOwner",
          "type": "address"
        }
      ],
      "name": "transferOwnership",
      "outputs": [],
      "stateMutability": "nonpayable",
      "type": "function"
    },
    {
      "inputs": [],
      "name": "withdrawEther",
      "outputs": [],
      "stateMutability": "nonpayable",
      "type": "function"
    },
    {
      "stateMutability": "payable",
      "type": "receive"
    }
  ],
  "bytecode": "0x608060405234801561001057600080fd5b50604051611db1380380611db183398101604081905261002f91610126565b806040518060400160405280600f81526020016e2237b730ba34b7b71021b7bab837b760891b8152506040518060400160405280600681526020016521a7aaa827a760d11b815250816000908161008691906101f5565b50600161009382826101f5565b5050506001600160a01b0381166100c457604051631e4fbdf760e01b81526000600482015260240160405180910390fd5b6100cd816100d4565b50506102b3565b600780546001600160a01b038381166001600160a01b0319831681179093556040519116919082907f8be0079c531659141344cd1fd0a4f28419497f9722a3daafe3b4186f6b6457e090600090a35050565b60006020828403121561013857600080fd5b81516001600160a01b038116811461014f57600080fd5b9392505050565b634e487b7160e01b600052604160045260246000fd5b600181811c9082168061018057607f821691505b6020821081036101a057634e487b7160e01b600052602260045260246000fd5b50919050565b601f8211156101f057806000526020600020601f840160051c810160208510156101cd5750805b601f840160051c820191505b818110156101ed57600081556001016101d9565b50505b505050565b81516001600160401b0381111561020e5761020e610156565b6102228161021c845461016c565b846101a6565b6020601f821160018114610256576000831561023e5750848201515b600019600385901b1c1916600184901b1784556101ed565b600084815260208120601f198516915b828110156102865787850151825560209485019460019092019101610266565b50848210156102a45786840151600019600387901b60f8161c191681555b50505050600190811b01905550565b611aef806102c26000396000f3fe6080604052600436106101395760003560e01c80637362377b116100ab578063a22cb4651161006f578063a22cb46514610364578063a73d8abe14610384578063b88d4fde146103b2578063c87b56dd146103d2578063e985e9c5146103f2578063f2fde38b1461041257600080fd5b80637362377b146102e657806375794a3c146102fb5780637749c1a7146103115780638da5cb5b1461033157806395d89b411461034f57600080fd5b806323b872dd116100fd57806323b872dd1461022357806342842e0e146102435780636352211e146102635780636882514c1461028357806370a08231146102a3578063715018a6146102d157600080fd5b806301ffc9a71461014557806306fdde031461017a578063081812fc1461019c578063095ea7b3146101d45780630ee4e2f2146101f657600080fd5b3661014057005b600080fd5b34801561015157600080fd5b5061016561016036600461163d565b610432565b60405190151581526020015b60405180910390f35b34801561018657600080fd5b5061018f61045d565b60405161017191906116aa565b3480156101a857600080fd5b506101bc6101b73660046116bd565b6104ef565b6040516001600160a01b039091168152602001610171565b3480156101e057600080fd5b506101f46101ef3660046116f2565b610518565b005b34801561020257600080fd5b5061021661021136600461171c565b610527565b6040516101719190611795565b34801561022f57600080fd5b506101f461023e3660046117a8565b6105f4565b34801561024f57600080fd5b506101f461025e3660046117a8565b610684565b34801561026f57600080fd5b506101bc61027e3660046116bd565b6106a4565b34801561028f57600080fd5b506101f461029e3660046117e5565b6106af565b3480156102af57600080fd5b506102c36102be366004611807565b6107f4565b604051908152602001610171565b3480156102dd57600080fd5b506101f461083c565b3480156102f257600080fd5b506101f4610850565b34801561030757600080fd5b506102c360085481565b34801561031d57600080fd5b506102c361032c3660046117e5565b61097d565b34801561033d57600080fd5b506007546001600160a01b03166101bc565b34801561035b57600080fd5b5061018f6109d3565b34801561037057600080fd5b506101f461037f366004611822565b6109e2565b34801561039057600080fd5b506103a461039f3660046116bd565b6109ed565b60405161017192919061185e565b3480156103be57600080fd5b506101f46103cd3660046118a2565b610c3b565b3480156103de57600080fd5b5061018f6103ed3660046116bd565b610c53565b3480156103fe57600080fd5b5061016561040d366004611986565b610d64565b34801561041e57600080fd5b506101f461042d366004611807565b610d92565b60006001600160e01b03198216632483248360e11b1480610457575061045782610dd0565b92915050565b60606000805461046c906119b9565b80601f0160208091040260200160405190810160405280929190818152602001828054610498906119b9565b80156104e55780601f106104ba576101008083540402835291602001916104e5565b820191906000526020600020905b8154815290600101906020018083116104c857829003601f168201915b5050505050905090565b60006104fa82610e20565b506000828152600460205260409020546001600160a01b0316610457565b610523828233610e59565b5050565b6060610531610e66565b60008267ffffffffffffffff81111561054c5761054c61188c565b604051908082528060200260200182016040528015610575578160200160208202803683370190505b50905060005b838110156105ea576008805460009182610594836119f3565b9190505590506105a48682610e93565b60008781526009602090815260408083208484529091529020889055825181908490849081106105d6576105d6611a1a565b60209081029190910101525060010161057b565b5095945050505050565b6001600160a01b03821661062357604051633250574960e11b8152600060048201526024015b60405180910390fd5b6000610630838333610ead565b9050836001600160a01b0316816001600160a01b03161461067e576040516364283d7b60e01b81526001600160a01b038086166004830152602482018490528216604482015260640161061a565b50505050565b61069f83838360405180602001604052806000815250610c3b565b505050565b600061045782610e20565b600081815260096020908152604080832085845290915281205490036106e85760405163a2cdac2560e01b815260040160405180910390fd5b336106f2836106a4565b6001600160a01b031614610719576040516335811ed160e01b815260040160405180910390fd5b60008181526009602090815260408083208584529091528120805491905561074083610fa6565b604051600090339083908381818185875af1925050503d8060008114610782576040519150601f19603f3d011682016040523d82523d6000602084013e610787565b606091505b50509050806107a95760405163bfa871c560e01b815260040160405180910390fd5b336001600160a01b031683857f6d08c128975ce7c459f3b6f71a86206459400e3867ef0d4239fe73096bd5de18856040516107e691815260200190565b60405180910390a450505050565b60006001600160a01b038216610820576040516322718ad960e21b81526000600482015260240161061a565b506001600160a01b031660009081526003602052604090205490565b610844610e66565b61084e6000610fe1565b565b610858610e66565b478061087757604051637031527760e01b815260040160405180910390fd5b600061088b6007546001600160a01b031690565b6001600160a01b03168260405160006040518083038185875af1925050503d80600081146108d5576040519150601f19603f3d011682016040523d82523d6000602084013e6108da565b606091505b505090508061092b5760405162461bcd60e51b815260206004820152601760248201527f4574686572207769746864726177616c206661696c6564000000000000000000604482015260640161061a565b6007546001600160a01b03166001600160a01b03167f06097061aeda806b5e9cb4133d9899f332ff0913956567fc0f7ea15e3d19947c8360405161097191815260200190565b60405180910390a25050565b600081815260096020908152604080832085845290915281205481036109b65760405163a2cdac2560e01b815260040160405180910390fd5b506000908152600960209081526040808320938352929052205490565b60606001805461046c906119b9565b610523338383611033565b60608060008060085467ffffffffffffffff811115610a0e57610a0e61188c565b604051908082528060200260200182016040528015610a37578160200160208202803683370190505b509050600060085467ffffffffffffffff811115610a5757610a5761188c565b604051908082528060200260200182016040528015610a80578160200160208202803683370190505b50905060005b600854811015610b1c57600087815260096020908152604080832084845290915290205415610b145780838581518110610ac257610ac2611a1a565b602090810291909101810191909152600088815260098252604080822084835290925220548251839086908110610afb57610afb611a1a565b602090810291909101015283610b10816119f3565b9450505b600101610a86565b5060008367ffffffffffffffff811115610b3857610b3861188c565b604051908082528060200260200182016040528015610b61578160200160208202803683370190505b50905060008467ffffffffffffffff811115610b7f57610b7f61188c565b604051908082528060200260200182016040528015610ba8578160200160208202803683370190505b50905060005b85811015610c2d57848181518110610bc857610bc8611a1a565b6020026020010151838281518110610be257610be2611a1a565b602002602001018181525050838181518110610c0057610c00611a1a565b6020026020010151828281518110610c1a57610c1a611a1a565b6020908102919091010152600101610bae565b509097909650945050505050565b610c468484846105f4565b61067e33858585856110d2565b6060610c5e82610e20565b5060008281526006602052604081208054610c78906119b9565b80601f0160208091040260200160405190810160405280929190818152602001828054610ca4906119b9565b8015610cf15780601f10610cc657610100808354040283529160200191610cf1565b820191906000526020600020905b815481529060010190602001808311610cd457829003601f168201915b505050505090506000610d0f60408051602081019091526000815290565b90508051600003610d21575092915050565b815115610d53578082604051602001610d3b929190611a30565b60405160208183030381529060405292505050919050565b610d5c846111fd565b949350505050565b6001600160a01b03918216600090815260056020908152604080832093909416825291909152205460ff1690565b610d9a610e66565b6001600160a01b038116610dc457604051631e4fbdf760e01b81526000600482015260240161061a565b610dcd81610fe1565b50565b60006001600160e01b031982166380ac58cd60e01b1480610e0157506001600160e01b03198216635b5e139f60e01b145b8061045757506301ffc9a760e01b6001600160e01b0319831614610457565b6000818152600260205260408120546001600160a01b03168061045757604051637e27328960e01b81526004810184905260240161061a565b61069f8383836001611272565b6007546001600160a01b0316331461084e5760405163118cdaa760e01b815233600482015260240161061a565b610523828260405180602001604052806000815250611378565b6000828152600260205260408120546001600160a01b0390811690831615610eda57610eda818486611390565b6001600160a01b03811615610f1857610ef7600085600080611272565b6001600160a01b038116600090815260036020526040902080546000190190555b6001600160a01b03851615610f47576001600160a01b0385166000908152600360205260409020805460010190555b60008481526002602052604080822080546001600160a01b0319166001600160a01b0389811691821790925591518793918516917fddf252ad1be2c89b69c2b068fc378daa952ba7f163c4a11628f55a4df523b3ef91a4949350505050565b6000610fb56000836000610ead565b90506001600160a01b03811661052357604051637e27328960e01b81526004810183905260240161061a565b600780546001600160a01b038381166001600160a01b0319831681179093556040519116919082907f8be0079c531659141344cd1fd0a4f28419497f9722a3daafe3b4186f6b6457e090600090a35050565b6001600160a01b03821661106557604051630b61174360e31b81526001600160a01b038316600482015260240161061a565b6001600160a01b03838116600081815260056020908152604080832094871680845294825291829020805460ff191686151590811790915591519182527f17307eab39ab6107e8899845ad3d59bd9653f200f220920489ca2b5937696c31910160405180910390a3505050565b6001600160a01b0383163b156111f657604051630a85bd0160e11b81526001600160a01b0384169063150b7a0290611114908890889087908790600401611a5f565b6020604051808303816000875af192505050801561114f575060408051601f3d908101601f1916820190925261114c91810190611a9c565b60015b6111b8573d80801561117d576040519150601f19603f3d011682016040523d82523d6000602084013e611182565b606091505b5080516000036111b057604051633250574960e11b81526001600160a01b038516600482015260240161061a565b805181602001fd5b6001600160e01b03198116630a85bd0160e11b146111f457604051633250574960e11b81526001600160a01b038516600482015260240161061a565b505b5050505050565b606061120882610e20565b50600061122060408051602081019091526000815290565b90506000815111611240576040518060200160405280600081525061126b565b8061124a846113f4565b60405160200161125b929190611a30565b6040516020818303038152906040525b9392505050565b808061128657506001600160a01b03821615155b1561134857600061129684610e20565b90506001600160a01b038316158015906112c25750826001600160a01b0316816001600160a01b031614155b80156112d557506112d38184610d64565b155b156112fe5760405163a9fbf51f60e01b81526001600160a01b038416600482015260240161061a565b81156113465783856001600160a01b0316826001600160a01b03167f8c5be1e5ebec7d5bd14f71427d1e84f3dd0314c0f7b2291e5b200ac8c7c3b92560405160405180910390a45b505b5050600090815260046020526040902080546001600160a01b0319166001600160a01b0392909216919091179055565b6113828383611487565b61069f3360008585856110d2565b61139b8383836114ec565b61069f576001600160a01b0383166113c957604051637e27328960e01b81526004810182905260240161061a565b60405163177e802f60e01b81526001600160a01b03831660048201526024810182905260440161061a565b606060006114018361154f565b600101905060008167ffffffffffffffff8111156114215761142161188c565b6040519080825280601f01601f19166020018201604052801561144b576020820181803683370190505b5090508181016020015b600019016f181899199a1a9b1b9c1cb0b131b232b360811b600a86061a8153600a850494508461145557509392505050565b6001600160a01b0382166114b157604051633250574960e11b81526000600482015260240161061a565b60006114bf83836000610ead565b90506001600160a01b0381161561069f576040516339e3563760e11b81526000600482015260240161061a565b60006001600160a01b03831615801590610d5c5750826001600160a01b0316846001600160a01b0316148061152657506115268484610d64565b80610d5c5750506000908152600460205260409020546001600160a01b03908116911614919050565b60008072184f03e93ff9f4daa797ed6e38ed64bf6a1f0160401b831061158e5772184f03e93ff9f4daa797ed6e38ed64bf6a1f0160401b830492506040015b6d04ee2d6d415b85acef810000000083106115ba576d04ee2d6d415b85acef8100000000830492506020015b662386f26fc1000083106115d857662386f26fc10000830492506010015b6305f5e10083106115f0576305f5e100830492506008015b612710831061160457612710830492506004015b60648310611616576064830492506002015b600a83106104575760010192915050565b6001600160e01b031981168114610dcd57600080fd5b60006020828403121561164f57600080fd5b813561126b81611627565b60005b8381101561167557818101518382015260200161165d565b50506000910152565b6000815180845261169681602086016020860161165a565b601f01601f19169290920160200192915050565b60208152600061126b602083018461167e565b6000602082840312156116cf57600080fd5b5035919050565b80356001600160a01b03811681146116ed57600080fd5b919050565b6000806040838503121561170557600080fd5b61170e836116d6565b946020939093013593505050565b6000806000806080858703121561173257600080fd5b8435935060208501359250611749604086016116d6565b9396929550929360600135925050565b600081518084526020840193506020830160005b8281101561178b57815186526020958601959091019060010161176d565b5093949350505050565b60208152600061126b6020830184611759565b6000806000606084860312156117bd57600080fd5b6117c6846116d6565b92506117d4602085016116d6565b929592945050506040919091013590565b600080604083850312156117f857600080fd5b50508035926020909101359150565b60006020828403121561181957600080fd5b61126b826116d6565b6000806040838503121561183557600080fd5b61183e836116d6565b91506020830135801515811461185357600080fd5b809150509250929050565b6040815260006118716040830185611759565b82810360208401526118838185611759565b95945050505050565b634e487b7160e01b600052604160045260246000fd5b600080600080608085870312156118b857600080fd5b6118c1856116d6565b93506118cf602086016116d6565b925060408501359150606085013567ffffffffffffffff8111156118f257600080fd5b8501601f8101871361190357600080fd5b803567ffffffffffffffff81111561191d5761191d61188c565b604051601f8201601f19908116603f0116810167ffffffffffffffff8111828210171561194c5761194c61188c565b60405281815282820160200189101561196457600080fd5b8160208401602083013760006020838301015280935050505092959194509250565b6000806040838503121561199957600080fd5b6119a2836116d6565b91506119b0602084016116d6565b90509250929050565b600181811c908216806119cd57607f821691505b6020821081036119ed57634e487b7160e01b600052602260045260246000fd5b50919050565b600060018201611a1357634e487b7160e01b600052601160045260246000fd5b5060010190565b634e487b7160e01b600052603260045260246000fd5b60008351611a4281846020880161165a565b835190830190611a5681836020880161165a565b01949350505050565b6001600160a01b0385811682528416602082015260408101839052608060608201819052600090611a929083018461167e565b9695505050505050565b600060208284031215611aae57600080fd5b815161126b8161162756fea2646970667358221220aba38b3e0d65c2a418f8d2cb9fc0eb85b607a536f77e067c541bb4faa1985b6464736f6c634300081c0033",
  "linkReferences": {},
  "deployedLinkReferences": {}
}